:020000040801F1
:100000000850002059970108E9060108EB0601088D
:10001000EF060108F3060108F706010800000000DA
:100020000000000000000000000000006B970108C5
:10003000FB0601080000000055F6010839C601085A
:100040007397010873970108739701087397010864
:100050007397010873970108739701087397010854
:100060008D1C01089B1C01087397010873970108F8
:100070007397010873970108739701087397010834
:100080007397010873970108739701087397010824
:10009000896D010873970108739701087397010828
:1000A0007397010873970108739701087397010804
:1000B000611401080D16010829160108739701083B
:1000C00073970108739701087397010873970108E4
:1000D0007397010851960108D92801087397010800
:1000E00073970108739701087397010873970108C4
:1000F00073970108739701087397010873970108B4
:1001000073970108739701087397010873970108A3
:100110007397010873970108739701087397010893
:100120007397010873970108739701087397010883
:100130007397010873970108739701087397010873
:100140007397010873970108739701087397010863
:100150007397010873970108739701087397010853
:100160007397010873970108739701087397010843
:100170007397010873970108739701087397010833
:10018000739701087397010800F002F800F064F813
:100190000AA090E8000C82448344AAF10107DA45E2
:1001A00001D100F059F8AFF2090EBAE80F0013F0D0
:1001B000010F18BFFB1A43F0010318476447010001
:1001C0008447010010F8013B0A4413F0030408BF00
:1001D00010F8014B1D1108BF10F8015B641E05D01B
:1001E00010F8016B641E01F8016BF9D1002D15D0D8
:1001F00010F8014B03F00C030C2BA1EB04040ABF15
:1002000010F8013BA4EB8314A4EB032405F10103D4
:1002100014F8016B5B1E01F8016BF9D5914238BFF0
:1002200010F8013BD1D3704700230024002500269D
:10023000103A28BF78C1FBD8520728BF30C148BF49
:100240000B6070471FB510F008FF9DE803000FF02A
:10025000E9FB1FBD10B510BD0FF0B8FC1146FFF74C
:10026000F1FF00F0F5F90FF0D6FC03B4FFF7F2FF51
:1002700003BC0FF007FD000030BF72B6704762B6D6
:10028000704780F30888704770470020704700204F
:1002900070470146002070470020704700207047DB
:1002A000002070472DE9F34F81B081460020009077
:1002B000002780460025002482468346002600BF92
:1002C00024E0EE4931F8150004F08EFE0446B4B186
:1002D000A069B0F800A000260EE0711CC8B221464B
:1002E00005F004F8A16901EBE00B9BF80000404425
:1002F0001FFA80F8701C86B25645EEDB04E04FF022
:1003000000082520009006E0681C85B2DB48801EAE
:100310000088A842D5DC00BF08F107004FEAE008DA
:10032000009850BB002522E0D54931F8150004F0B3
:100330005BFE0446ACB1A069B0F800A000260DE059
:10034000711CC8B2214604F0D1FFA16901EBE00B9A
:100350009BF80000384487B2701C86B25645EFDB2C
:1003600003E000272420009006E0681C85B2C44802
:10037000801E0088A842D7DC00BFF81DC710A9F86E
:1003800000700298A0F800800098BDE8FE8F10B5BC
:1003900004467222BB4920460FF05DFA10BD10B52D
:1003A000044662222146B8480FF055FA10BD704746
:1003B00010B5B449891EB448801E01F0C6FAB1498F
:1003C000891EB148801E01F0AEFBAE48801E02F0CF
:1003D000A6F8AD48801E01F02DFFAA48801E01F04E
:1003E000EFFB10BD0520704710B5A84890F84800F5
:1003F00008287DD2DFE800F004102A5F98C1DCE015
:100400000120A3490870A348007820B10020A14929
:10041000087008F06DFAE8E001209D4908709D48D9
:10042000007820B100209B49087008F061FA08F0BC
:1004300050FA0220954981F84800084690F8440097
:1004400020F00100401C81F84400CEE09148007883
:1004500028B300208F49087008F04AFA8E480078C7
:10046000E8B98E480078401C8C490870084600782E
:10047000962814DD0020087001208949086083480F
:1004800090F8440020F00200801C804981F844006C
:1004900000207F49087003207C4981F8480008F05B
:1004A00020FF80480078012804D100207D49087091
:1004B00008F0CCFD99E07C48007830B300207A4900
:1004C000087008F015FA7448007801281ED17748A2
:1004D0000078401C7549087008460078052818DD2A
:1004E000002008706E490860684890F8440000E0F9
:1004F0007AE020F00200654981F844000120644957
:1005000008700220614981F8480002E00020674934
:10051000087008F0E6FE6348007820B100206149C9
:10052000087008F093FD60E008F0DBFE604800789A
:10053000012821D15F480078F0B900205C4908709B
:1005400008F0B5FF5C480078401C5B49087008461D
:10055000007803280DDB00205549087057480078C3
:100560004A4981F8480000205349087054490870EE
:1005700002E001205249087037E000204D49087020
:100580004948007820B100204749087008F0B0F9C8
:1005900008F0A7FE4B480078012808D142F21070FD
:1005A0000CF0A7F800204749087008F043FC1CE055
:1005B000002008F03FFC18E03A48007880B10020A5
:1005C0003849087008F042FD00203F4908602F4874
:1005D00090F8450020F00400001D2C4981F84500EA
:1005E00000202B49087000E000BF00BF37480078AA
:1005F000012809D100203549087008F0C8FA18B15F
:100600000720224981F8480010BD10B5044601209A
:100610002F49087000BFFFF7E7FE2D48007801283A
:10062000F9D010BD70B5044600BF0CF05BFB0EF0B6
:10063000E9FF05460723274A0021AFF231000DF0FC
:1006400095FFFF200EF012FA28460EF0DFFF70BD76
:1006500010B521482149086001F0EAFA20490870E4
:100660000CF002FA0C231F4A0021AFF247000DF0F4
:100670007DFF0CF01FFB002010BD0000D205002004
:10068000D6050020DE05002052060020F8160020C6
:10069000EB06002006000020EA060020EC06002001
:1006A000840242420500002007000020ED060020E1
:1006B0000C0000200D000020170000201600002074
:1006C0000F0000200E000020B482424209000020EA
:1006D0003B120020082800200000010808ED00E07F
:1006E000E7060020082A0020704700BFFEE700BF91
:1006F000FEE700BFFEE700BFFEE770470CB5002035
:10070000019000907648006840F480307449086099
:1007100000BF7348006800F4003000900198401C4E
:100720000190009818B90198B0F5A04FF1D16C482C
:10073000006800F4003010B10120009001E00020BA
:1007400000900098012846D165484030006840F08C
:1007500080506349403108606248006840F440407E
:10076000604908605E48083000685D4908310860EB
:100770000846006840F4004008600846006840F4FD
:10078000A05008605848091F0860081F006840F022
:100790008070091F086000BF5148006800F00070B9
:1007A0000028F9D040F20570504908604C480830E4
:1007B000006820F003004A490831086008460068D4
:1007C00040F00200086000BF45480830006800F0B3
:1007D0000C000828F8D10CBD10B54548006840F45D
:1007E0007000434908603E48006840F001003C4901
:1007F000086000203A4908310860394800683D49DE
:100800000840374908603C48091D0860081F006817
:1008100020F48020091F0860002031490C31086055
:10082000FFF76CFF4FF0006031498039086010BD60
:1008300070B500200022022300240221284D083533
:100840002D6805F00C0020B1042806D0082834D10A
:1008500007E02A4D2A4E356033E02A4D284E356098
:100860002FE01F4D2D1D2D68C5F380541C4D2D1DEF
:100870002D6805F03F0154B1224DB5FBF1F5184E3E
:10088000361D3668C6F3881605FB06F209E01B4DD7
:10089000B5FBF1F5124E361D3668C6F3881605FB1A
:1008A00006F20F4D2D1D2D68C5F301456D1C6B0023
:1008B000B2FBF3F5124E356003E0104D104E35607B
:1008C00000BF00BF064D08352D68C5F303150E4E59
:1008D000705D0B4D2D68C540094E356070BD000040
:1008E000003802400070004008544007003C0240BD
:1008F00088ED00E0FFFFF6FE103000240024F40035
:10090000F006002000127A00F406002030B50346FD
:1009100000244888401C82B28888904200D100227E
:100920000888904201D1072030BD4D8801F10800B0
:1009300040F825304A800020F6E710B501460A88C5
:100940004B889A420ED00A8801F1080353F822001E
:10095000531C9AB20A800B888C88A34201D10023D1
:100960000B8000E0002010BD08B52220F849088067
:100970004FF48070F74908800001F74908804FF470
:100980008450F64908800020F549088048800A20F4
:1009900088800020F349088048800A2088808020D1
:1009A0000EF094FEF04908600020F0490860F0491C
:1009B0000860F0490860F0490870022240F60E0114
:1009C000684600F0EAFEBDF8000020F400700090D8
:1009D000022240F60E01684600F02CFF0020E74995
:1009E0000870E7490870E7490870E7490870E74967
:1009F0000870E749087008BD70B50025002002F0B6
:100A0000EDFE04466088D24908802088D2490880DB
:100A1000012002F0E3FE04466088CE490880208869
:100A2000CE490880CC480088C94909880844CB4988
:100A3000098888420ADDC9480088C64909880844EF
:100A4000C5490988884201DD162070BD002002F0EA
:100A5000EBFE012002F0E8FEBD480188C2480068B4
:100A60000EF078FFC048006868B90120C9490870D5
:100A7000BD4800680021016041600181BA480068FA
:100A800020B9022502E00020C24908702846DCE7B0
:100A900038B50020B949087002F0ACFE012002F020
:100AA000A9FEB248006818B1B04800680EF03DFEDB
:100AB000B048006848B1AF480068AC49096888424E
:100AC00003D0AC4800680EF030FEA948006878B149
:100AD000A7480068A5490968884209D0A448006869
:100AE000A4490968884203D0A14800680EF01DFEA1
:100AF00000209E4908609E4908609E4908609E4902
:100B000008700090022240F60E01684600F045FE93
:100B1000BDF8000020F400700090022240F60E01A3
:100B2000684600F087FE00209549087095490870D6
:100B300095490870954908709549087000BF884824
:100B4000FFF7FBFE04461CB120460EF0EEFD00242C
:100B5000002CF4D100BF8348FFF7EFFE04461CB120
:100B600020460EF0E2FD0024002CF4D106F04EFEEB
:100B700038BD70B5044688480078012806D1A088A1
:100B8000C0F30320042801D0022070BDA088C0F368
:100B90000320032802D0042821D104E0204602F0DB
:100BA0008DFD05461DE020887C49088060884880CE
:100BB000A0888880E08808812189608941EA004115
:100BC0007648C1602088821F04F10C017348103000
:100BD0000EF041FE714806F069F9054601E0022574
:100BE00000BF00BF2846D0E7F8B504466C4800783F
:100BF00000F00F00012801D1F020F8BD5F48007817
:100C000008B9F020F9E75E48007808B10720F4E75A
:100C10002588A81D82B251480188204600F00AFEAE
:100C200000200090022240F60C01684600F0B5FD5D
:100C3000BDF800000090BDF8000000F40060F8B9B5
:100C400044480178A81D081AC6B2002055490880FA
:100C5000022E09DAA81D40084700C6F10202E11978
:100C600050480EF0F8FD00BF3C480088394A128811
:100C70001044801E81B202224A4800F0DBFD00BF12
:100C80003B48006810B94848374908603848046054
:100C900001203B4908700020AFE770B504460D46BF
:100CA00000263F48007800F00F00012801D1F02015
:100CB00070BDA08820F47040A0803548007800F016
:100CC000070010B9012032490870A088304909781E
:100CD00040EA0130A0802046FFF786FF70B121492D
:100CE0002046FFF713FE064616B145F080050AE0E0
:100CF00027480078401C2649087004E02448007802
:100D0000401C2349087005F0800030B105F07F00D9
:100D10001D49097808431C4908703046C8E72DE989
:100D2000F04104460026A08805132788B7F5807F88
:100D30003CDD04202080A08820F47060A080012089
:100D4000E0800821218100212046FFF7A6FF4CE02A
:100D50000A070020080700200C0700200E070020CB
:100D6000402C00200C2C0020140700201C07002021
:100D70001807002020070020070700200607002092
:100D8000050700200407002012070020100700209C
:100D9000110700202407002064120020742C00207A
:100DA00098120020A21200200C2B00201DB1B04888
:100DB0000078854215D0AE480570AE492046FFF751
:100DC000A5FD06468EB104202080A08820F4706026
:100DD000A0800120E080268100212046FFF75DFFF2
:100DE00003E020460EF0A1FC0024BDE8F08110B520
:100DF0000020A1490870A148006848B1A0480068D7
:100E000030B99E4800680EF090FC00209B490860B5
:100E10009C480068994908609948006838B198482A
:100E20000068FFF7E1FE00209549086008E0964859
:100E3000FFF783FD044614B12046FFF7D5FE00BF3F
:100E40009248007850B39148007800F0010068B1F2
:100E50008F48006806F04DFD06F009FDF0B18B48A3
:100E6000007820F001008949087027E08748007861
:100E700000F0020098B100248448007820F00200BD
:100E8000824908708248006802F03CFC04462CB19C
:100E90007E48007840F002007C4908700EE07B48F4
:100EA000007800F0400048B17848007820F0400019
:100EB000764908707648006806F07FF910BD10B5D5
:100EC0006E480068D8B16D4804686B48007878B106
:100ED0006B48006860B9012002F08CFC694800682A
:100EE00067490860012002F09FFC002062490870F9
:100EF0002046FFF779FE00206049086000BF654882
:100F0000007808B9012000E000206249087010BD97
:100F10001CB502226048018801A800F03EFCBDF823
:100F2000040001905D48007801281AD10A200EF0D3
:100F3000CDFB0446A4B10020206060602081042025
:100F40002080A08820F47060A0800120E08007212C
:100F5000218100212046FFF7A0FE20460EF0E5FB90
:100F600000BFBDF80400801D80B2019042480078A7
:100F700010B94648007818B101204949087042E08C
:100F8000002047490870BDF8040046490988884296
:100F900002DD444800880190424801883C480068CE
:100FA0000EF0D8FC3A48006818B901203C49087096
:100FB0001CBDBDF80420384801883548006800F0A1
:100FC000ECFB00200090022240F60401684600F08D
:100FD000E4FBBDF800000090BDF8000000F40060E4
:100FE00068B10020304908802B4800882D4A1288BB
:100FF0001044801E81B202222B4800F0CEFB244810
:101000000068FFF78CFE00BFD2E770B5002400BF78
:1010100000251848FFF791FC04461CB12046FFF755
:10102000A8FD054665B104202080A08820F47060EA
:10103000A0800120E080258100212046FFF72DFEC1
:10104000002CE5D11948007860B10B48007848B908
:1010500006F00DFC30B906F0BFFB0546284606F049
:1010600010FC00BF0E48007808B1FFF751FF70BDBB
:1010700010070020402C0020050700201C0700203E
:1010800020070020180700200C2C00201207002049
:1010900014070020070700200C0700202407002069
:1010A000040700200A070020A212002006070020E3
:1010B0007FB505460C460121084608F04AFF029517
:1010C000ADF804400020ADF80600ADF80C0001A911
:1010D0004FF0804009F03FF901221146900709F0D6
:1010E000DBFD0121880709F0BFF91C208DF8000005
:1010F00001208DF8010003208DF8020001208DF8F9
:101100000300684608F04DFB7FBD00B589B00121A2
:10111000032008F0D5FE0121022008F01AFF01216A
:10112000880308F027FFC020079002208DF82000D8
:1011300003208DF8210001208DF822008DF8230076
:1011400007A9FE4808F01EFC0120079002208DF838
:10115000200003208DF8210001208DF822000220BC
:101160008DF8230007A9F64808F00CFC022206219E
:10117000F24808F092FC02220721F04808F08DFCAA
:1011800002220021EE4808F088FC0020ADF804009F
:10119000ADF806004FF6FF7002900020ADF80C008D
:1011A00001A9E84809F0D7F802231A460321E548C7
:1011B00009F045FE0820ADF810000020ADF8180039
:1011C000ADF81200ADF816000120ADF8140004A926
:1011D000DC4809F097FC0020DA492431086001223C
:1011E0000821D84809F058FD0121D64809F03CF9FA
:1011F0001D208DF8000000208DF8010001208DF8E1
:1012000002008DF80300684608F0CBFA09B000BD73
:1012100070B504460D46CB480088C0F3001020602E
:10122000C84809F0E5F8286070BD7FB505460C4652
:101230000121042008F08DFE0295ADF80440002045
:10124000ADF80600ADF80C0001A9BF4809F083F81D
:1012500001221146BC4809F01FFD0121BA4809F0DE
:1012600003F91E208DF8000001208DF801008DF893
:1012700002008DF80300684608F093FA7FBD10B5B0
:10128000B24800780D280ED003DC38B1012871D1A6
:101290002BE00E284FD00F286CD147E02021AC481E
:1012A00008F0ECFB66E0AB480088401CA9490880C8
:1012B00008460088B0F5FA7F04DC2021A44808F035
:1012C000DFFB11E0A3480088B0F57A7F04DA202123
:1012D0009F4808F0D3FB07E09E480088B0F57A7F6E
:1012E00002DB00209B49088044E09B480088401CAA
:1012F0009949088008460088012804DC2021944888
:1013000008F0BEFB11E094480088B0F57A7F04DA5B
:1013100020218F4808F0B2FB07E08F480088B0F525
:101320007A7F02DB00208C49088023E02021884856
:1013300008F0A6FB1EE089480088401C8749088009
:1013400008460088642804DC2021814808F098FBC6
:101350000FE082480088C82804DA20217C4808F081
:101360008DFB06E07D480088C82802DB00207B4911
:10137000088000BF00BF10BD10B52DED088B784868
:101380000078012864D177480088B0F57A7F02DBC5
:10139000002074490880734800880FF07FFB41ECFF
:1013A0001B0B9FED710B53EC102B0FF0C7FB41ECA7
:1013B0001A0B0FF0FFFA00FB00F420460FF057FB6A
:1013C00041EC190B6A4890ED000B53EC102B51ECDB
:1013D000190B0FF0E3F841EC180B9FED660B53EC83
:1013E000102B0FF0DFFC624A03C2614890ED000B46
:1013F000624880ED000B9FED620B53EC102B5C48B4
:1014000090ED000B51EC100B0FF05CFB05D89FED3D
:101410005C0B574880ED000B1FE09FED5B0B53EC1E
:10142000102B534890ED000B51EC100B0FF084FC87
:101430000CD2574890F8460020F00100401C544957
:1014400081F84600072081F8480006E000BF04E06C
:101450009FED4B0B464880ED000BBDEC088B10BD9B
:1014600010B50121880709F02EFC012864D14948F4
:101470000078401C4749087001F02CFDFFF7FFFE83
:1014800044480078022813DB43480078401C424956
:10149000087042480078401C404908704048008865
:1014A00018B901F052FB05F09FFC00203949087083
:1014B0003749C88900EBD071374A1278B2EB610F17
:1014C00005DD012037490870002033490870334892
:1014D0000078052830DB0020304908703248007859
:1014E000401C31490870012030490870FFF744FF63
:1014F000274991F8480007F0CBF82B4800780228DC
:101500007FDB00202849087029480078401C2849C2
:1015100008700120274908702548007819280ADB3F
:1015200001202549087000202149087023480078CF
:10153000401C2249087043E063E0000000000240C4
:101540000004024000040040000800408F12002008
:10155000000802402C0700202E0700203007002042
:10156000EB060020441600207B14AE47E17A843F4E
:1015700038070020000000000000E03F4007002086
:1015800000000000000000000000000000409F403C
:10159000F816002048070020490700204A070020CD
:1015A000E4060020050000204B0700200600002074
:1015B0004C07002007000020080000204D070020F5
:1015C0002F48007804280ADB2E480088012803D120
:1015D00008F07AF808F09DF80020294908702A4898
:1015E000007801280DD129480088401C274908802F
:1015F00008460088C82804DB002008800120244910
:1016000008700121880709F06FFB10BD10B5082193
:10161000204809F058FB012805D106F09CFB082161
:101620001C4809F061FB10BD10B501211A4809F0F2
:101630004AFB012822D119480068401C174908605C
:1016400008460068D0B1072001218140144A4309AF
:1016500042F8231000BF01F03DFC01210E4809F0C3
:1016600043FB0720012181404209920002F1E02260
:10167000C2F8001100BF00200849086010BD00003A
:101680004D070020E40600200F000020120000207B
:101690000C00002000040040000800402807002043
:1016A00080E100E010B5FEF7E8FD1021FE4808F0EB
:1016B000E7F901200AF0F2FF002000F047FCFB49A7
:1016C0000870FA2000F042FCF8494870FF2000F052
:1016D0003DFC044601200AF0E1FF1021F24808F029
:1016E000CDF900BFFEF7CBFD10BD10B51021EE48BF
:1016F00008F0C6F901200AF0D1FF002000F026FC16
:10170000EA490870002000F021FCE84948701021E7
:10171000E54808F0B3F910BD38B504460D4645EA72
:10172000C40080B200901021DF4808F0A9F9012020
:101730000AF0B4FF9DF8010000F008FCDB49487096
:101740009DF8000000F002FCD849087038BD7CB557
:1017500004460D4645EAC40080B200901021D248EC
:1017600008F08EF901200AF099FF9DF8010000F0C1
:10177000EDFB01909DF8000000F0E8FB01907CBDBE
:10178000704710B5FFF78EFFC848008810BD10B530
:10179000FFF7ABFFC548008810BD2DE9F0410546B5
:1017A0000C461646B0462F4616E0FEF766FD0221AF
:1017B0002046FFF7B1FF1021BB4808F061F9FF2078
:1017C00000F0C4FB38707F1CFEF759FD1021B648AD
:1017D00008F054F9601C84B2B8F10000A8F10101CE
:1017E0001FFA81F8E1DCBDE8F0812DE9F0470446FD
:1017F0000D461646B0464FF00009274602212846FE
:10180000FFF7A5FF09E0B8F1000F01D14FF0FF0984
:10181000484600F09BFB07F8010BB8F10000A8F167
:1018200001011FFA81F8EEDC10219F4808F026F92B
:10183000BDE8F0872DE9F84305460C461646B0464C
:101840002F4616E0FEF719FD04212046FFF764FF3E
:101850001021954808F014F9387800F077FB0090D3
:101860007F1CFEF70CFD10218F4808F007F9601C63
:1018700084B2B8F10000A8F101011FFA81F8E1DC9F
:10188000BDE8F8832DE9F84304460D461646B046F8
:10189000274604212846FFF75AFF06E0387800F073
:1018A00055FB00907F1CFEF7EAFCB8F10000A8F1A0
:1018B00001011FFA81F8F1DC10217B4808F0DEF805
:1018C000BDE8F88310B500F050FB00F079FA10BDC8
:1018D00038B500240121764808F0D0F80121754878
:1018E00008F0CEF84BF6C47000F011FB0090012117
:1018F000704808F0C3F800BF11E001216D4808F0FE
:10190000BFF80A200AF0CAFE002000F000FB6A4976
:1019100021F814000121674808F0B0F8641C0A2C73
:10192000EBDB66480078C0436449087008460078DD
:1019300028B14FF48061624808F0A0F804E04FF449
:1019400080615F4808F09CF838BD10B501235D4CFC
:101950002370083010F8043C5B4C238010F8023CE4
:101960005A4C238003785A4C2370437863708378F1
:10197000A370C378E370037923714379637183792A
:10198000A371C379E371037A2372437A6372837A12
:10199000A372C37AE372037B2373437B6373837BFA
:1019A000A373C37BE373037C2374437C6374837CE2
:1019B000A374C37CE374037D2375437D6375837DCA
:1019C000A375C37DE375037E2376437E6376837EB2
:1019D000A376C37EE376037F2377437F6377837F9A
:1019E000A377C37F0838E3770023364C2370394B45
:1019F0001B78002B76D0384B1A8804E00023374C34
:101A0000A354531C9AB2202AF8DB0023314C2370D4
:101A1000334B1B88183121F8043C2F4B1B8821F8CD
:101A2000023C2E4B1B780B702C4B5B784B702B4B76
:101A30009B788B70294BDB78CB70284B1B790B7113
:101A4000264B5B794B71254B9B798B71234BDB7953
:101A5000CB71224B1B7A0B72204B5B7A4B721F4B64
:101A60009B7A8B721D4BDB7ACB721C4B1B7B0B73EF
:101A70001A4B5B7B4B73194B9B7B8B73174BDB7B3D
:101A8000CB73164B1B7C0B74144B5B7C4B74134B4E
:101A90009B7C8B74114BDB7CCB74104B1B7D0B75CB
:101AA0000E4B5B7D4B751EE000180240580900206C
:101AB0000008024000000240782D0020500900205C
:101AC000001402405A090020600900206409002027
:101AD000F02D00206C09002068090020B02D0020A6
:101AE0005E0900201EE05B4B9B7D8B75594BDB7DB7
:101AF000CB75584B1B7E0B76564B5B7E4B76554B0E
:101B00009B7E8B76534BDB7ECB76524B1B7F0B77CA
:101B1000504B5B7F4B774F4B9B7F8B774D4BDB7FE6
:101B2000CB77183910BD4C4A1278012A25D14B4A7F
:101B3000128821F8382F4A4A12884A80494A128866
:101B40008A80494A12788A71474A5278CA71464A4D
:101B500092780A72444AD2784A72434A12798A7257
:101B6000414A5279CA72404A92790A733E4AD279FE
:101B70004A7338390022384B1A7001223B4B1A70D5
:101B800030F8282F3A4B1A8042883A4B1A608288E4
:101B9000394B1A808279394B1A70C2795A70027A9D
:101BA0009A70427ADA70827A1A71C27A5A71027B1A
:101BB0009A71427B2838DA7100222C4B1A707047D8
:101BC00010B52DED048B04462D4840882A2148434A
:101BD0000F2190FBF1F0A08029488088C0F30B0012
:101BE0002A2110FB01F00F2190FBF1F0E080244945
:101BF0004989C1F30B000EF03AFF9FED220B53EC25
:101C0000102B0EF07FFD0EF005FFA0811C49898985
:101C1000C1F30B000EF02BFF9FED1A0B53EC102BB2
:101C20000EF070FD0EF0F6FEE081BDEC048B10BDF1
:101C300010B54FF4A06007F0AFFDA8200AF008FD32
:101C400000F02EFA00F060FA06F088FC06F0BAFA0E
:101C5000002010BDB02D00202813002010130020FC
:101C60001413002012130020301300205B09002001
:101C7000181300201C1300201A1300203813002012
:101C8000782D00209A9999999999F93F10B501F00A
:101C900085F9042009F0ADFB10BD10B501F040FA44
:101CA000082009F0A6FB10BD0EB50121880308F03D
:101CB00061F90121002008F068FA0220009000205C
:101CC0008DF804000C208DF8050001208DF8060029
:101CD000684609F01DFB07208DF8080000208DF8EC
:101CE00009008DF80A0001208DF80B0002A807F00A
:101CF00058FD0EBD0EB50121880308F03BF9022105
:101D0000042008F042FA0420009000208DF804001E
:101D10000C208DF8050001208DF80600684609F0BA
:101D2000F7FA08208DF8080000208DF8090001203E
:101D30008DF80A008DF80B0002A807F032FD0EBDE9
:101D40000EB50121880308F015F90321042008F0DD
:101D50001CFA0820009000208DF804000C208DF85B
:101D6000050001208DF80600684609F0D1FA092027
:101D70008DF8080001208DF809008DF80A008DF813
:101D80000B0002A807F00DFD0EBD01228A400B4B8F
:101D90001A6048B1094A143A126801238B401A4369
:101DA000064B143B1A6008E0044A143A12680123F7
:101DB0008B409A43014B143B1A607047143C01401E
:101DC00000B587B00121072008F07AF801218803C7
:101DD00008F0BFF805220221AA4807F05EFE05229E
:101DE0000321A84807F059FE05220A21A64807F05A
:101DF00054FE012005908DF8180000208DF81A007F
:101E000003208DF8190001208DF81B0005A99F48BB
:101E100007F0B8FD0C20059002208DF81800002076
:101E20008DF81A0003208DF8190001208DF81B0091
:101E300005A9944807F0A6FD4FF4806005900220A4
:101E40008DF8180000208DF81A0003208DF8190075
:101E500001208DF81B0005A98B4807F093FD022097
:101E6000059000208DF8180003208DF8190001203E
:101E70008DF81B0005A9834807F084FD012005901B
:101E80008DF8180000208DF81A0003208DF8190035
:101E900001208DF81B0005A97A4807F073FD012188
:101EA000880308F0ABF802200AF0F8FB00214FF499
:101EB000804008F0A3F80020ADF800004FF48270D5
:101EC000ADF802004FF40060ADF804000220ADF858
:101ED00006000020ADF808004FF40070ADF80A00CD
:101EE0000820ADF80C000020ADF80E000720ADF87A
:101EF00010006946664809F0D1FA0121644809F0EA
:101F0000C7FB6021624809F0B3FC07B000BD10B503
:101F1000044600BF02215E4809F084FC0028F9D085
:101F200021465B4809F035FC00BF0221584809F002
:101F300079FC0028F9D000BF0121554809F072FC56
:101F40000028F9D0524809F021FC10BD0146514843
:101F5000018000BF4F48001F008800F001000028EA
:101F6000F8D04C480088C0B2704710B588B0012145
:101F7000642007F0A5FF0121C80307F0EAFF06224D
:101F80000A21404807F089FD06220B213D4807F051
:101F900084FD06220C213B4807F07FFD202006909F
:101FA00001208DF81C0000208DF81E0002208DF805
:101FB0001D0001208DF81F0006A9374807F0E2FC3C
:101FC0001020069001208DF81C0000208DF81E00C6
:101FD00003208DF81D0001208DF81F0006A92F4851
:101FE00007F0D0FC10212D4807F048FD4FF4E050D9
:101FF000069002208DF81C0000208DF81E000320A2
:102000008DF81D0001208DF81F0006A91D4807F05E
:10201000B9FC0121C80308F002F802200AF03EFBD7
:1020200000214FF4004007F0FAFF0020ADF8040053
:102030004FF48270ADF806000020ADF808000220D1
:10204000ADF80A000120ADF80C004002ADF80E001A
:102050000020ADF81000ADF812000720ADF8140014
:1020600001A90C480C3809F019FA012109480C386B
:1020700009F00EFB00BFFF20FFF768FF044608B021
:1020800010BD0000000802400004024000000240B1
:10209000003800400C3C0040001402400018024090
:1020A0001CB50121242007F00BFF4FF4E1600090E4
:1020B00001208DF8040000208DF8060003208DF823
:1020C000050001208DF807006946D64807F05AFC44
:1020D0004FF4E161D34807F0D1FC3020009001209B
:1020E0008DF8040000208DF8060003208DF805000F
:1020F00001208DF807006946CB4807F043FC3021EA
:10210000C94807F0BBFC1CBD1CB501217E2007F0AF
:10211000D7FE4FF48070009001208DF8040000205D
:102120008DF8060003208DF8050001208DF80700CA
:102130006946BD4807F026FC4FF48071BA4807F0A5
:102140009DFC4FF4E070009001208DF80400002009
:102150008DF8060003208DF8050001208DF807009A
:102160006946B24807F00EFC4FF4E071AF4807F043
:1021700085FC4FF4E060009001208DF80400002001
:102180008DF8060003208DF8050001208DF807006A
:102190006946A74807F0F6FB4FF4E061A44807F052
:1021A0006DFC4FF40040009001208DF804000020E9
:1021B0008DF8060003208DF8050001208DF807003A
:1021C00069469C4807F0DEFB4FF40041994807F050
:1021D00055FC4FF4E040009001208DF804000020F1
:1021E0008DF8060003208DF8050001208DF807000A
:1021F0006946904807F0C6FB4FF4E0418D4807F070
:102200003DFC4FF4F840009001208DF804000020C0
:102210008DF8060003208DF8050001208DF80700D9
:102220006946854807F0AEFB4FF4F841824807F055
:1022300025FC1CBD10B50446A07800F0010028B1B3
:102240004FF48071784807F01BFC04E04FF4807174
:10225000754807F013FCA078C0F3400028B14FF494
:102260008071724807F00CFC04E04FF480716F48F5
:1022700007F004FCA078C0F3800020B180216B48F7
:1022800007F0FEFB03E08021684807F0F7FBA07829
:10229000C0F3C00020B14021644807F0F1FB03E027
:1022A0004021624807F0EAFBA078C0F3001028B193
:1022B0004FF480615E4807F0E3FB04E04FF4806177
:1022C0005B4807F0DBFBA078C0F3401028B14FF467
:1022D0000071574807F0D4FB04E04FF400715448F4
:1022E00007F0CCFBA078C0F3801028B14FF48071C8
:1022F0004F4807F0C5FB04E04FF480714C4807F0ED
:10230000BDFBA078C0F3C01028B14FF4004149488C
:1023100007F0B6FB04E04FF40041464807F0AEFB7F
:1023200094F8360000F0010028B14FF48041414894
:1023300007F0A6FB04E04FF480413E4807F09EFB07
:1023400094F83600C0F3400028B14FF400513948EA
:1023500007F096FB04E04FF40051364807F08EFB7F
:1023600094F83600C0F3800028B14FF48051314812
:1023700007F086FB04E04FF480512E4807F07EFB07
:1023800094F83600C0F3C00028B14FF400512A4839
:1023900007F076FB04E04FF40051274807F06EFB8E
:1023A00094F83600C0F3001028B14FF48041224861
:1023B00007F066FB04E04FF480411F4807F05EFB26
:1023C00094F83600C0F3401028B14FF480511A48F9
:1023D00007F056FB04E04FF48051174807F04EFB1E
:1023E00094F83600C0F3801028B14FF40061124811
:1023F00007F046FB04E04FF400610F4807F03EFB96
:1024000094F83600C0F3C01028B14FF480610A4838
:1024100007F036FB04E04FF48061074807F02EFB1D
:1024200010BD0000001402400008024000180240E5
:10243000000C024000040240001002401CB50121C3
:102440004C2007F03DFD4FF4FC40009000208DF83B
:10245000040003208DF8050001208DF8070069466F
:10246000FE4807F08FFAC020009000208DF804008D
:1024700003208DF8050001208DF807006946F84813
:1024800007F080FA2C20009000208DF80400032033
:102490008DF8050001208DF807006946EF4807F028
:1024A00071FA4FF47840009000208DF8040003206A
:1024B0008DF8050001208DF807006946E84807F00F
:1024C00061FA1CBDF0B50446059D0020E6B2012E60
:1024D0000BD10F8802F0FF0C674502DBD7B20F80EB
:1024E0000CE00F887F1C0F8008E00F88012F02DCB2
:1024F00000270F8002E00F887F1E0F800F889F4209
:1025000001DC002009E00F88A2EB030C1FFA8CFC11
:10251000674501DB012000E028782870F0BD30B568
:10252000A1B00446032020901F901E901D901C9087
:102530001B901A901990189017901690159014905F
:10254000139012901190002010900F900E900D900B
:102550000C900B900A9009900890079006900590B7
:1025600004900390029001904FF40061BB4807F083
:102570006BFA054610A80223062220A900902846DF
:10258000FFF7A0FFC043618860F3000161804FF452
:102590008051B24807F058FA05460FA802230622D8
:1025A0001FA900902846FFF78DFFC043618860F3A4
:1025B000410161804FF40051A84807F045FA0546F3
:1025C0000EA8022306221EA900902846FFF77AFFD4
:1025D000C043618860F3820161804FF480419F486D
:1025E00007F032FA05460DA8022306221DA9009025
:1025F0002846FFF767FFC043618860F3C30161802D
:102600004FF48061954807F01FFA05460CA8022395
:1026100006221CA900902846FFF754FFC04361889A
:1026200060F3041161804FF400718C4807F00CFADC
:1026300005460BA8022306221BA900902846FFF797
:1026400041FFC043618860F3451161808021844867
:1026500007F0FAF905460AA8022306221AA90090F3
:102660002846FFF72FFFC043618860F38611618021
:1026700040217B4807F0E8F9054609A80223062215
:1026800019A900902846FFF71DFFC043618860F339
:10269000C71161802021714807F0D6F9054608A8C6
:1026A0000223062218A900902846FFF70BFFC0431B
:1026B000B4F8461060F30001A4F8461008216748FA
:1026C00007F0C2F9054607A80223062217A90090C1
:1026D0002846FFF7F7FEC043B4F8461060F3410107
:1026E000A4F8461004215D4807F0AEF9054606A897
:1026F0000223062216A900902846FFF7E3FEC043F6
:10270000B4F8461060F38201A4F846104FF400417B
:10271000534807F099F9054605A80223062215A992
:1027200000902846FFF7CEFEC043B4F8461060F391
:10273000C301A4F846104FF48041494807F084F9DA
:10274000054601A80223062211A900902846FFF79A
:10275000B9FEC043B4F8461060F3C711A4F84610A0
:102760004FF400613E4807F06FF9054602A80223C6
:10277000062212A900902846FFF7A4FEC043B4F831
:10278000461060F38611A4F846104FF48051344887
:1027900007F05AF9054603A80223062213A9009060
:1027A0002846FFF78FFEC14334F8460F61F345100A
:1027B00020804FF400512A4807F046F9054604A846
:1027C0000223062214A900902846FFF77BFEC0438F
:1027D000218860F3041121804FF400611F4807F045
:1027E00033F9204908804FF480511C4807F02CF938
:1027F0001C4948804FF40051184807F025F9194941
:1028000088804FF48041154807F01EF91549C880AB
:102810004FF48061114807F017F9124908814FF40D
:1028200000710E4807F010F90E49488180210C48CC
:1028300007F00AF90B4988814021094807F004F99B
:102840000849C8812021054807F0FEF8054908829B
:102850000821024807F0F8F8024905E00018024094
:10286000000C0240902D002048820421174807F0F8
:10287000EBF8174988824FF40041164807F0E4F856
:102880001349C8824FF40051124807F0DDF810498F
:1028900008834FF480510F4807F0D6F80C4948835D
:1028A0004FF400610B4807F0CFF8094988834FF4D3
:1028B0008041084807F0C8F80549C88305F019FAAF
:1028C000C4F82600463C21B030BD0000001802408C
:1028D000902D0020000C02401CB540F22441B64867
:1028E00008F0BEFC00284DD0002240F22441B2483E
:1028F00008F07BFCB04808F0F1FBC0B2009000216A
:10290000AE4809F09BF8AE49AC4809F010F9AB4865
:1029100009F0B7F8C0F12000C0B201909DF80400A2
:10292000A8490880A8480088401CA74908800024BE
:1029300005E0A648005DA6490855601CC4B29DF894
:1029400004008442F5DB40F224419B4808F0C3FCBC
:1029500020219A4809F093F80121984809F06EF86F
:102960009C48008810B901209B490870012240F260
:102970002441914808F039FC96480088012801D18B
:10298000964908701CBD10B596B004460121480553
:1029900007F096FA894808F075FF4FF00060009044
:1029A0008548001D01908948029000200390202056
:1029B0000490002005904FF480600690002007905E
:1029C000089009904FF440300A9000200B900120AD
:1029D0000C9000200D900E906946784808F0F4FFA6
:1029E0000121764809F02AF80021734808F047FBD6
:1029F0000121084607F064FA0121480407F0A9FA0A
:102A000007220221764807F048F80722032174487C
:102A100007F043F80C20149002208DF85400032096
:102A20008DF8550000208DF8560001208DF85700D4
:102A300014A96B4806F0A6FF1020149001208DF811
:102A4000540003208DF8550000208DF85600012019
:102A50008DF8570014A9624806F094FF10940020E6
:102A6000ADF84400ADF84600ADF84800ADF84C00B4
:102A70000C20ADF84A0010A94F4808F078FA01225E
:102A800040214D4808F0A8FB01214B4808F0F7FA17
:102A90004021494808F0DBFB26208DF83C0003204C
:102AA0008DF83D0000208DF83E0001208DF83F009C
:102AB0000FA806F076FE1021494806F0E1FF4948CC
:102AC0000460012240F224413B4808F08EFB16B01E
:102AD00010BDF8B505460E46002000901021404874
:102AE00006F0CCFFC82009F0D9FD00240CE0295DD8
:102AF000314808F0EFFA00BF80212F4808F09AFB18
:102B00000028F9D0601CC4B2B442F0DB0020364982
:102B10000870C82009F0C2FD1021314806F0B0FF4E
:102B2000F8BD10B5024600200AE0521C137883EA73
:102B30002023DBB22D4C34F8133083EA002398B203
:102B40000B1EA1F10101F0D110BD10B5002240F221
:102B50002441194808F049FB25480088202802DD57
:102B600020202349088023480078C0B920480178F4
:102B70002148FFF7AEFF21480088214908801C4802
:102B8000008820490880002404E01B48005D1E499D
:102B90000855641C164800888442F6DB04E0194896
:102BA00001781948FFF795FF012240F224410248BD
:102BB00008F01BFB10BD000000440040886002408C
:102BC000400F0020680900205E090020702E0020C0
:102BD000B02D0020E40600206C09002078160020AB
:102BE00000000240B40600206A0900206E0900209F
:102BF000640900205A090020F02D002060090020FF
:102C00006209002066090020302E002092480068EA
:102C1000704730B503469049086815E0018999422C
:102C200011D10268416802B1516001B10A6000240B
:102C3000046044600489884D2D682D89AC4201D11F
:102C4000854C216030BD40680028E7D100BFF9E71E
:102C500030B581480468002504E025896468284669
:102C6000FFF7D7FF002CF8D100207B49086030BD6A
:102C70000146002940D07848006848B9764801608C
:102C80000020754A12685060734A126810607047DD
:102C90007148006800890A8990420BDD00200860B5
:102CA0006D48006848606C48006801606A480160CF
:102CB0000020ECE7684802681BE010890B89984205
:102CC00001D10120E3E710890B89984209DD1068E2
:102CD00008604A60106808B1106841601160002007
:102CE000D5E7506820B951600A6000204860CEE7FF
:102CF0005268002AE1D100BF0120C8E770B505463F
:102D000000262C4607E02046FFF7B2FF06460EB12C
:102D1000304670BD283420894FF6FF718842F2D1C9
:102D20003046F6E710B5002400204B4908604B48B8
:102D3000FFF7E4FF04460CB1204610BD4848FFF7FA
:102D4000DDFF04462046F8E710B5202045490880FD
:102D5000002048804860886044F21F008881424813
:102D60000861002048618883086281F840002020C3
:102D70003E490880002048803A484068486000206A
:102D80008860384880898881374808610020486118
:102D90008883086281F8400035490870FFF7C2FF58
:102DA00004460CB1FFF754FF002032490870324945
:102DB0000870324908803249087032490860324947
:102DC00008603249086008200CF080FC3049086037
:102DD00010BD38B500242D48006800283BD0264897
:102DE0000078009028480368264802682448017843
:102DF00022480088254D2D68A8470446FF2C2AD07C
:102E00001C480078012807D0022804D003280AD0E3
:102E1000042810D106E000BF00221146204603F02E
:102E200083FC08E000BF1848026816480168204685
:102E300003F07AFC00BF00BF00200E4908700F4964
:102E400008800F4908700F4908600F4908600A4957
:102E500008700E49086038BD7C10002080100020EA
:102E6000700B0020F42F002020A107003830002034
:102E7000B0120020D0120020D1120020D412002065
:102E8000D2120020D8120020DC120020E012002014
:102E9000E812002010B5FE48FDF779FAFD480088D9
:102EA0004FF6FF7101EA8002FB480188F848FEF7FF
:102EB000C1FC10BD10B5F94800884FF6FF7101EA5A
:102EC0008002F7480188F748FEF78FFCF548FDF7C8
:102ED00066FA10BD10B5F448406820B9F348008880
:102EE000401CF2490880F248007850B1F148B0F92E
:102EF0000000002805DDEF480088401E00B2ED49C3
:102F0000088001F0AAFD10BD30B5EB48007800281C
:102F10003FD1EA48007800283BD00021E248808B6E
:102F2000012800D1012181B10020DF4A5060908347
:102F3000E34A50609083DD4A10800120E14A10701E
:102F4000E1480068E14A106022E0DE48007801288C
:102F50001ED1DD4B1A6800BFDC4B1B68D31ADC4C5A
:102F600063434FF47A7493FBF4F4D04B1B8843F61D
:102F700009556B4304EB8310CB4B5860D04B586022
:102F80000023CA4C2380D14C2360CE4C237000BF59
:102F900000BF30BD10B5FDF70BFA10BD70B5CD48C0
:102FA0000078401CCB4908700020CB490880CB49F1
:102FB0000880C1480078002876D0C948007820B140
:102FC000C8480088401CC7490880C74800880028B6
:102FD00045DDC6480088C4490988884220DDAF48DD
:102FE000008800280ADDB048008DC149098988425F
:102FF00004DCAD48008DC01CAB490885A54800889D
:1030000000280DDDA548008850B9AD48008DB849AD
:103010000989884204DCAA48008DC01CA84908859B
:103020009E480088B0B99B480088002812DDFEF752
:10303000AEFB054600BF05F4006028B9AB48008828
:10304000401CAA49088004E00020A84908809C4947
:10305000088504E0A5480088401CA4490880FEF7C4
:1030600096FB044600BF04F4806078B3A148007862
:1030700028B19148007810B100209C4908808A4806
:10308000008D002804DD8848008DC01E8649088513
:103090000120994908708848007830B19748007835
:1030A00018B1FFF707FF11E037E002227C480188E2
:1030B0009348FEF79AFB7A480088784A12881044B1
:1030C000801E81B202228E48FEF78FFBFFF762FF5F
:1030D0008348007890B18B48008800280EDD89482D
:1030E000008880490988884208D1FFF7D3FE8548C7
:1030F0000088012802D100207A49088078480078A9
:1031000040B16F484088032804D17E48008808B940
:10311000FFF7C0FE00207349088001F08BFE70BDF0
:1031200010B500206D4908806D48007840B16448B2
:103130004088032804D17348008808B9FFF7AAFE25
:1031400000206849088010BD38B5002401F0D1FD89
:10315000FFF7FAFD0020554908805C49086059498D
:103160000870009002224FF4A0616846FEF715FB3C
:10317000BDF800000090BDF8000000F0010000283C
:103180000DDDBDF8000020F480700090BDF8000057
:10319000009002224FF4A0616846FEF74BFB01202D
:1031A00059490870204638BD10B55748007800B915
:1031B00010BD4248007818B94F48007800283AD12D
:1031C0003D480078002836D13C480078C8B1FEF769
:1031D000D8FA044600BF04F4806040B1012046499B
:1031E00008704648007858B1FFF764FE08E02B48A5
:1031F000008828B904F4006010B101203E4908702D
:1032000000BF072001218140404A430942F82310B2
:1032100000BFFFF7BFFE3248007808B1FFF73AFE63
:103220000720012181404209920002F1E022C2F808
:10323000001100BF00BF01F0FDFDFFF7CAFD01F066
:1032400086FC3348008820B13148008800B23149FB
:1032500088823148008820B12F48008800B22D496B
:1032600008822E48008818B12C48008829494883D4
:103270002B48008818B12A48008826490883294825
:10328000008818B12748008822494DE04DE0000031
:103290005E2F0020901200209E120020921200202B
:1032A0009C120020C82E0020F42F00205412002071
:1032B0008B1200206A120020691200208412002064
:1032C000383000205C12002028070020581200200F
:1032D00040420F0050120020781200207C12002083
:1032E0006612002082120020701200206E12002050
:1032F000B41200206C12002067120020651200201A
:10330000A2120020801200205D12002080E100E067
:10331000DA060020F8160020DE060020D006002085
:10332000CE060020D2060020C883D048008818B1FD
:10333000CE480088CE49C884CE48008818B1CD4810
:103340000088CB490885CC48008818B1CA48008855
:10335000C7498885C9480068C9490860C9480068E4
:103360004860C9480088C9490880C5480068C849FC
:103370000968884205D1C2484068C5494968884201
:1033800013D00222BE49C3480CF0DFFCBC480068E1
:10339000BF490860BA4840684860B8480068FFF70D
:1033A000F2FAB848006803F02BFC40F60F00BA4967
:1033B0000880BA490968BA4A88180122B9490CF04C
:1033C00016FDB848008880B24FF6FF7188420CD0D5
:1033D000B44800686FF30F0010F5803F05D0AF4888
:1033E0000068801CAD49086015E0AE48008880B2D6
:1033F0004FF6FF7188420BD0AA4800686FF30F00A8
:1034000010F5803F04D1A7480088A749088002E052
:103410000020A549088000BFCAE62DE9FF4F85B00E
:103420000E4690461F460020049081464FF00A0A3F
:1034300002224FF4A06103A8FEF7AFF9022240F286
:10344000025102A8FEF7A9F9BDF80C0000F0010036
:1034500000287DD00125022F07D1BDF8080000F01B
:10346000400008B1042500E002254FF4807003906D
:1034700002224FF4A06103A8FEF7DCF900249CE0CF
:10348000042240F2045105A8FEF7D4F9022F08D116
:10349000F8010290022240F2025102A8FEF7CAF996
:1034A0000FE008EB440002224FF4A161FEF7C2F9DD
:1034B0004FF400700290022240F2025102A8FEF77F
:1034C000B9F900BF4FF0640B03E0ABF1010000F06D
:1034D000FF0BBBF1000FF8DC022240F2025102A800
:1034E000FEF75BF9BDF8080000F400400028E9D1C0
:1034F000022240F2025102A8FEF74FF9BDF808007F
:1035000000F4F04050B1BDF8080000F4005008BBD2
:10351000BAF1000F1ED05120049051E0022F19D1B2
:103520004FF6FF7000EA4500019009EB0500B0423C
:1035300006DDA6EB09004FF6FF7101EA400001909D
:1035400008EB44004FF4A161019AFEF726F900E070
:1035500038E000BFBDF8080000F4F04058B9059805
:103560002844059009EB05001FFA80F94FF00A0A7C
:10357000601984B221E0AAF1010000F0FF0ABAF15B
:10358000000F17DD42F210710020484B1B889AB2E1
:103590000DE0464B1B8898B2824202DA131AC91A10
:1035A00004E04FF6FF739B1ACB1A191A0246002942
:1035B000EFDC02E05120049002E0B442FFF660AF7D
:1035C00000BF01E0502004900020039002224FF43D
:1035D000A06103A8FEF72EF9049809B0BDE8F08FAA
:1035E000F0B585B00125FF200090022301AA072134
:1035F0000020FFF712FF0546002D33D101AF002454
:1036000020E0385DBDF8001048400090002615E02D
:10361000BDF8000000F0800038B1BDF800000721BF
:1036200081EA400080B2009006E0BDF800004FF64D
:10363000FF7101EA40000090701C86B2082EE7DBA3
:10364000601C84B20E2CDCDBBDF80000C0B2009020
:1036500004236A4601210720FFF7DFFE054605B96E
:10366000202500BF284605B0F0BD0000D40600208C
:10367000F8160020D6060020D8060020B406002048
:10368000B02E0020B8060020C006002052120020F4
:10369000BC2E002000000E08C20600204C120020A4
:1036A0000078FF1F48120020C406002028070020D1
:1036B00000202449086024490880704770B50446FA
:1036C0000025E088000B092817D2DFE800F016106B
:1036D000050F111213140A00204602F012FE0546CF
:1036E0000DE0204603F081F8054608E000BF00BF6A
:1036F00000BF00BF00BF042501E0052500BF00BFDB
:10370000284670BD10B504460E48006840B100213F
:103710000C480068FDF7C1FA00200A4908600FE074
:103720004FF4007120460CF015F90CB9072010BDBC
:103730000E22064920460CF08EF8204603F055F87C
:103740000020F4E760120020EC120020E4120020B8
:1037500038B5044602224FF401716846FEF71DF8A1
:10376000BDF800002040009002224FF4017168462D
:10377000FEF760F838BD38B5044602224FF40171F7
:103780006846FEF70AF8BDF80000204300900222C8
:103790004FF401716846FEF74DF838BD08B50020BA
:1037A0000090022240F202516846FDF7F6FFBDF894
:1037B00000000090BDF8000000F40060002805DC67
:1037C000BDF8000000F48050002803DD0020FE4911
:1037D000087002E00120FC49087008BD10B50446DD
:1037E0004FF4006000EBC4010822F848FDF7D5FF54
:1037F000F64810BD38B504464FF480700090E000E4
:1038000000F60605022229466846FEF713F800BFB7
:10381000022229466846FDF7C0FFBDF8000000F40B
:1038200080700028F4D038BD38B5044600200090E0
:10383000E00000F60605022229466846FDF7FAFF79
:1038400000BF022229466846FDF7A7FFBDF8000029
:1038500000F480700028F4D138BD2DE9F04780468F
:10386000002700250026DA48008842F6FF718842CA
:103870000BDBD7480088884207DBD54800888842A0
:1038800003DBD3480088884202DA1420BDE8F087C1
:103890000020FFF7A3FF04466588268805F0010095
:1038A000002801DD1720F1E706F00100002801DD06
:1038B0001720EBE7A07900F0010008B916271FE0F8
:1038C000207900F00C00042801D0162718E0207998
:1038D00000F00200022801D0162711E0222D01DAA3
:1038E00016270DE0B5F5807F01DD162708E0B6F557
:1038F000805F01DA162703E0B6F5405F00DB16278C
:103900001FBB0120FFF76AFF04466588268805F083
:103910000100002801DD1720B8E706F001000028AB
:1039200001DD1720B2E7A07900F0010008B91627E1
:103930001EE0207900F00C0008B1162718E020796D
:1039400000F00200022801D0162711E0222D01DA32
:1039500016270DE0B5F5807F01DD162708E0B6F5E6
:10396000845F01DA162703E0B6F5405F00DB162717
:10397000002F57D1B8F1030F54DD0120954908708D
:103980000320FFF72BFF04466588268805F0010019
:10399000002801DD172079E706F00100002801DD8D
:1039A000172073E7A07900F0010010B10DB90427CA
:1039B00036E0A07900F0010068B3874800888542AE
:1039C00004D18548008808B1962D01DD032727E042
:1039D000207900F00C00E0B980480078022805D179
:1039E000B6F5805F02DBB6F5405F07DB7B48007809
:1039F00002280CD07A480088864208D1207900F04D
:103A0000020002280CD100207249087008E0022749
:103A100006E0042704E015B96F48008800B10327C9
:103A200007B11E27F7BBB8F1020F61DD0220FFF7D7
:103A3000D5FE04466588268805F00100002801DDD2
:103A4000172023E706F00100002801DD17201DE7FD
:103A5000A07900F0010010B10DB9042746E0A0796B
:103A600000F00100A8B35F480088854237D15D4867
:103A7000008878B3962D32DC207900F00C00042801
:103A80002BD156480078022805D1B6F5805F02DBBD
:103A9000B6F5405F09DB5148007802281BD0524838
:103AA000008800E024E0864215D1207900F0400033
:103AB00018B101204D49087002E000204B49087000
:103AC000207900F00200022810D10020414908703E
:103AD0000CE006E003E0022708E0042706E00327E5
:103AE00004E015B93F48008800B1032707B11D273E
:103AF00087B9C1460AE04846FFF770FE0446E088F1
:103B00003B49088009F1010000F0FF0939480078BD
:103B10008145F0DB3846B9E62DE9F04786B0002054
:103B2000049003900290019080464FF0030A4FF0FA
:103B30000309002400254FF6FF762F4880890640B0
:103B40002E488089064000202D4908802D490870A4
:103B50000220FFF743FE074638882349088038795A
:103B600000F0020008B14FF001090320FFF736FE14
:103B7000074638881A490880387900F0020008B1F1
:103B80004FF0010A164800881349098801FB0A0012
:103B90001D490988884208DD1B4800881B4909889F
:103BA00008440F49098888423BDC0D4800880A49CF
:103BB000098801FB0A0016490988884235DD144846
:103BC00000881449098827E0AE120020A6120020C0
:103BD00096120020851200209012002098120020DA
:103BE0009E120020921200209C12002068120020D9
:103BF000A412002094120020F42F0020383000205E
:103C0000A0120020671200200E07002008070020E5
:103C10000C0700200A0700200844FE490988884252
:103C200003DD1E2006B0BDE8F087FB480088FB4995
:103C3000098801FB0900FA490988884208DDF8482B
:103C40000088F84909880844F3490988884225DC36
:103C5000F1480088F149098801FB0900F249098807
:103C6000884208DDF0480088F04909880844EA499C
:103C70000988884212DCE8480088E849098801FB85
:103C80000900E449098888420ADDE2480088E849D9
:103C900009880844E0490988884201DD1D20C1E700
:103CA00002224FF4186105A8FDF777FDBDF8140056
:103CB000059004224FF41A6102A8FDF76EFD0298E8
:103CC0000290042240F6A41101A8FDF766FD0198B8
:103CD0000190D8484488D8484588BDF8140000F4BD
:103CE000106000284BD0BDF8140000F4C06008B983
:103CF000302097E7BDF8140000F4007030B9BDF82B
:103D0000140000F4806008B130208BE78EB106F01B
:103D1000040020B9BDF8140000F4007038B906F0B2
:103D2000080030B9BDF8140000F4806008B13020FC
:103D300078E7029848B1C1490298884203D3C04944
:103D40000298884201D936206CE7BDF8140000F4CF
:103D5000007060B1BDF8140000F4806038B10198C3
:103D600028B1DDE90101884201D34FF00108B8F123
:103D7000000F04D006F0100008B9302052E7B14817
:103D8000007820B3BDF8140000F4106048B9022C8C
:103D900005D0032C03D0022D01D0032D50D13020AB
:103DA00040E7BDF8140000F4806028B9032C01D06E
:103DB000032D01D1302035E7BDF8140000F4007068
:103DC00018BB022C01D0022D3AD130202AE7BDF8D1
:103DD000140000F41060C8B990480088002808DD7D
:103DE000012493480088002801DD22250AE00025EF
:103DF00008E08F480088002802DD0024012501E04A
:103E00000024002501208B49888319E0834800881D
:103E1000002806DDB8F1000F01D0032402E00224DF
:103E200000E0002482480088002808DDBDF8140066
:103E300000F4806008B1032502E0022500E00025BF
:103E4000032C06D17B49029848627B49029848625C
:103E500008E0022C06D1774902984862029880B2A5
:103E6000754948627848007818B904B10DB929201D
:103E7000D8E604B915B10120744908707348007878
:103E800080B166480088002804DD4FF480607049E6
:103E9000088007E066480088002803DD4FF40060D2
:103EA0006B490880022C05D0032C03D0022D01D0D1
:103EB000032D08D10120674908705848008810B9BF
:103EC0000020634908805B4844805B4845800020AF
:103ED000614908806149088061490880614908801A
:103EE000B8F1010F2CD1DDE90101884212D3DDE9DF
:103EF0000101B0FBF1F05A490880DDE90101B0FB96
:103F0000F1F201FB120040B955480088401C5449A9
:103F1000088002E0012052490880DDE90101B0FB80
:103F2000F1F04D490880DDE90101B0FBF1F201FB40
:103F3000120078B148480088401C4749088009E0D1
:103F4000022C02D1012046490880032D02D0012015
:103F50004149088000204449088002224FF48461CE
:103F600003A8FDF71AFCBDF80C0003902B4800884D
:103F7000002821DDBDF80C00F0B10222510204A896
:103F8000FDF70BFCBDF810000490BDF8100070B1F7
:103F9000BDF81010881CBDF80C10484346F2A7115C
:103FA0000844491CB0FBF1F0304A108008E00020C2
:103FB00003902E49088003E0002004902B490880DC
:103FC0002A48008810B92A48007828B9274800886C
:103FD00020B12748007808B91F2023E61B48007845
:103FE00040B10E48008828B11948008840F480602C
:103FF0001749088000201F4908801F4908801F4971
:1040000008801F4908801F4908701F4908701F4910
:1040100008803DE09E1200209C1200209212002099
:104020000E070020080700200C0700200A070020C8
:1040300090120020F42F00203830002020A107002B
:10404000000050C3B012002085120020841200200E
:10405000A01200206912002080120020821200208D
:10406000701200206E120020B21200209A1200205E
:10407000681200207A120020781200207C120020A2
:104080007E1200206C120020721200207412002098
:10409000FC4981F84000FC4981F840000885BDF8E2
:1040A000140000F4007030B3029818B90020F749EA
:1040B000088013E0F64A0299B1FBF2F0052803D21A
:1040C0000121F24A118008E04FF6FF7101EA400138
:1040D0000A2291FBF2F1ED4A118000BFBDF81400F5
:1040E00000F4806038B1DDE90101884204D2E7487C
:1040F0000088E84908801DE0E54A0199B1FBF2F02B
:10410000052803D20121E34A118008E04FF6FF7130
:1041100001EA40010A2291FBF2F1DE4A1180DB4AFA
:10412000118801EBD172DB4B1B8803EB6202D94B88
:104130001A8000BFD8480088002802DD0220FFF75F
:1041400073FBD6480088002802DD0320FFF76CFBD4
:10415000FEF7A0FE002065E5FF21D148007810B1F0
:10416000D04800887047D048007828B1C820CF4A8E
:1041700010800020CE4A10800846F3E70020CD4989
:104180000870CD490870704710B5C34800880028F2
:1041900002DD0220FFF72EFBC0480088002802DD68
:1041A0000320FFF727FB0C2444F4806444F40064EC
:1041B000E14388B2FFF7CCFA0020BE490870BF493E
:1041C0000870B9490870BE490870BE490870BE49F8
:1041D0000880BE490880AD490880BD490880BD49B6
:1041E0000880AC490880BC490880BC490880A549C2
:1041F00081F84000AD490880B9490870B949087094
:10420000B949087010BD0020B7490870704738B52B
:1042100005460C460094B5480078A84201D0B34842
:104220000570B3480078A8B1B048007800F01000DD
:1042300080B97CB9AD48007800F00F00032809D0A0
:10424000FCF7D0F80090A948007840F02000A7497A
:10425000087005E0A548007820F02000A349087008
:104260004FF6FF70844208D0BDF800000090022293
:104270004FF49A716846FDF7DDFA9C48007800908B
:10428000BDF80000009002224FF498716846FDF7D7
:10429000D1FA14B105F0100018B900209549087042
:1042A00012E02D2C03D01A2C01D0322C03D1012086
:1042B0009049087008E01B2C03D102208D4908703A
:1042C00002E00D208B4908708A48007840F0100009
:1042D0008849087005F00F0009281AD2DFE800F0BD
:1042E000190509150D1919191100002082490870C6
:1042F0000FE00D20804908700BE001207E49087016
:1043000007E00F207C49087003E00E207A4908700E
:1043100000BF00BF38BD2DE9F04105460F4600241F
:10432000A046601E7549088001207549087005F097
:10433000100040B14FF001086C48007820F01000E8
:104340006A49087010E06948007800F0100028B150
:1043500005F00F00012801D0BDE8F0816348007826
:1043600000F00F006149087005F00F055F480678FE
:104370003007060E7019C6B2442E24D008DC122E67
:104380000FD0222E10D0242E13D0422E22D10AE09C
:10439000482E16D0822E05D0842E13D0882E19D107
:1043A00012E000BF00BF00BF0220FFF756FA04462C
:1043B00010E039493948FBF775FF044604B109E0BC
:1043C00000BF00BF00BF00BF4E480078FFF745FAAE
:1043D000044600BF00BF002C4AD100204A49088093
:1043E0003046342E46D01EDC222844D00EDC142861
:1043F00042D006DC112840D012283FD013283ED1ED
:104400002AE018283CD02128F9D14AE1282838D0C0
:1044100004DC23287CD02428F1D1D2E0312878D0C4
:104420003228ECD16FE1482874D00CDC422872D0DD
:1044300004DC382870D04128E1D126E143286CD033
:104440004428DCD139E18138082818D2DFE800F0AF
:10445000F4FDF2F5171717F001202C49087002201F
:10446000FFF7FBF928B1002028490870152450E116
:1044700050E153E048E11FE13FE11AE181E046E10C
:104480003CE13CE138300020F42F00207A1200207B
:10449000A08601007E1200209212002090120020BF
:1044A0008612002088120020691200207412002059
:1044B000761200206712002065120020841200206E
:1044C0006C12002072120020701200206E12002068
:1044D000781200207C12002080120020821200201E
:1044E0006812002066120020B012002098120020EE
:1044F000991200208E1200208F1200206A120020D4
:104500008A120020941200208C12002064120020D5
:10451000F6E022E073E0A4E0F7E0F2E00020FFF72D
:1045200017F9FCF769FA04464CB90020FA490870FB
:10453000FBF7ABFE044614B90120F849087044B1FA
:10454000FF2C06D0F448007808B9FBF7A0FEFCF772
:104550009FFA032002F09CFCDBE0F148007868B190
:104560000020EF4908700220FFF777F90020FFF7DD
:10457000EFF8FCF78DFAFBF78AFE0446FFF743FEDF
:10458000C7E0FFF70BF9E748007800B95124BCB940
:10459000FCF732FA04464CB90020DF490870FBF7FB
:1045A00074FE044614B90120DC49087044B1FF2CA4
:1045B00006D0D948007808B9FBF769FEFCF768FA1D
:1045C000A7E0FFF7A9FA044674B90020D2490870A1
:1045D000D548FBF75EFE044634B9D3480088FFF7A0
:1045E000CAF80120D149087044B1FF2C06D0CA484E
:1045F000007808B9FBF750FEFFF7C6FD89E0FFF72A
:10460000ABFD04464CB90020C3490870FBF746FED9
:10461000044614B90120C649087044B1FF2C06D0E5
:10462000BD48007808B9FBF73BFEFFF7A7FD70E037
:1046300044E002E066E008E01BE0FBF731FEFFF734
:104640009DFD0020B449087063E0FBF729FE044695
:10465000FFF794FD0020B049087004B159E04226EC
:1046600000BFFBF719FEFFF78FFD0020AA49087075
:104670004FE0FBF715FE0446FFF780FD0020A6493A
:10468000087004B145E0412600BFFBF705FE044673
:10469000FFF77AFD0020A049087004B139E0212617
:1046A00000BFFCF7F5F9FBF7F2FD0446FFF7ABFDA1
:1046B0002FE0FFF7A8FD00BF00BF00BFB8F1000F5B
:1046C00002D03046FBF7E0FD9A48007898B99A4846
:1046D000007800F00C0070B198480088002803DDD5
:1046E0000220FFF7A1F806E095480088002802DDC7
:1046F0000320FFF799F8FE240BE000BF00BF00BFC6
:1047000000BF00BF00BF00BF00BF112401E01224A2
:1047100000BF1EE08848007802280DD0042806D08B
:10472000082816D1FBF7BCFDFFF728FD00BFFBF7FB
:10473000B3FDFFF729FD00BF162C07D1FCF7A8F940
:10474000FBF7A5FD01207C49087002E002207A49B0
:104750000870FF2C26D101207A4908707A4806801B
:104760000088122806D0132805D0242808D048280D
:104770000CD106E000BF4FF4FA607449088009E0EC
:1047800000BF42F228307149088003E0C8206F4919
:10479000088000BF00BF6D480088323800B26B4906
:1047A000088049E06448007800F00F00A8423BD040
:1047B00004B9DFB160480078284300F00800A8B1D0
:1047C0005B48007818B1FBF76BFDFFF7D7FC5B483F
:1047D0000088002803DD0220FFF70CF806E05848A7
:1047E0000088002802DD0320FFF704F86CB152486E
:1047F0000078082802D104204F4908704E480078FC
:1048000040F010004C49087005E017B13C4645F0F7
:1048100010054948057000204A490870214646485D
:104820000078FFF7F4FC07E00020464908700021FB
:1048300041480078FFF7EBFC00BF8DE570B54148BB
:104840000078002867D00024002500263F48008813
:10485000002855D13C480088C0F307153A48008825
:10486000122806D0132805D0242812D0482846D173
:104870001EE000BF2848007808B9FBF708FDFCF7E8
:1048800007F92C48007810B13148068800E001266D
:1048900035E02148007808B9FBF7FEFCFFF774FC0F
:1048A0002448007810B12A48068800E0012626E056
:1048B0002848007878B12848007808B92D2615E0F6
:1048C0002648007828B91D480088002801DD1B26ED
:1048D0000CE01A260AE019480088002801DD1B2692
:1048E00004E00825002601201149087036B10A4865
:1048F000007808B9FBF7D4FCFFF740FC00BF9FE04D
:104900001148008812282BD013282AD0242841D0FF
:1049100048283ED155E09FE08A120020060700207B
:1049200064120020AE120020A012002066120020A7
:10493000651200208612002098120020921200209A
:10494000901200208B1200208C1200206A1200208E
:1049500088120020691200206C12002067120020CB
:1049600000BFFE480078A0B10020FC490870FBF7AA
:104970008CFC04463CB90120F9490870F9480078DC
:1049800000F00F0505E0FF2C03D0FBF780FCFCF7DF
:104990007FF854E0F148007890B10020EF490870AA
:1049A000F148FBF776FC044624B90120EF49087072
:1049B000042505E0FF2C03D0FBF76EFCFFF7E4FBBA
:1049C0003DE0E648007818B3E948007808B3E948C4
:1049D000B0F90000002831DDE648B0F90000E649F2
:1049E000B1F90010884229DC0020E2490880E24940
:1049F0000880FBF753FC044624B90120DF49087006
:104A000008251BE0FF2C19D0FBF74AFCFFF7B6FB8B
:104A100014E0DB48008810B1DA48007870B1FBF789
:104A20003DFC044624B90120D4490870082505E05E
:104A3000FF2C03D0FBF734FCFFF7A0FB00BF00BF47
:104A40004DB10020D04908700EB145F01005314637
:104A50002846FFF7DCFB00BF70BD07200121814025
:104A6000CA4A430942F8231000BFC1480078002811
:104A700062D0C7480088002809DDC6480088C449BC
:104A80000988884203DB0020C34908700DE0C14853
:104A90000088BF490988884204DABE480088401C63
:104AA000BC4908800120BC490870BB48007890B11F
:104AB000BA48008800280EDDB9480088B74909883F
:104AC000884205DAB6480088401CB549088002E0F3
:104AD0000020B1490870B048007838B3B148008D63
:104AE000B149098988420EDA0120B0490870A1480D
:104AF000B0F9000000281FDD9F480088401C00B26C
:104B00009D49088018E0A9480078A8B10020A7496D
:104B100008700120A34981F840009648B0F90000D0
:104B2000002809DD00209449088005E09F480078AE
:104B300010B100209D4908700720012181404209E1
:104B4000920002F1E022C2F8001100BF704708B5E0
:104B500097480088F8B10020009002224FF4886145
:104B60006846FCF71AFEBDF800000090BDF8000092
:104B700000F0010070B98248008800280ADD7F48F3
:104B8000007820B11B210420FFF7C5FB08BD0020E1
:104B90007C49087000BF7648007890B1774800786B
:104BA00078B17D48007820B92C210420FFF7B3FBB1
:104BB000ECE77E48007820B91A210420FFF7ABFB10
:104BC000E4E700BFE2E770B505460C462E466E48A6
:104BD000007800285CD06148007850B1002C07D0E4
:104BE00001207449087074480480002073490880CB
:104BF0007EE02CB301206F4908706F48048059484B
:104C00000088122806D0132805D0242808D0482868
:104C100010D10AE000BFFBF73AFBFBF739FF09E0D0
:104C2000FBF73AFBFFF7B0FA04E0FBF739FBFFF7BD
:104C3000A5FA00BF00BF4B480088C0F307161CE070
:104C400048480088122806D0132805D0242807D009
:104C500048280DD108E000BF01204149087007E055
:104C600001204249087003E001204449087000BF58
:104C700000BF3C48007800F00F0600204249087051
:104C80000CB146F0100621463046FFF7C0FA2FE07F
:104C90008CB10120474908704748048005F00F0097
:104CA0004749097801F00F01884221DA2146284658
:104CB000FFF731FB1CE03F480078C8B1404800785E
:104CC00000F00F000C280ED12D480088002803DDCD
:104CD0000220FEF7A9FD06E03A480088002802DD20
:104CE0000320FEF7A1FD00203249087032490880F8
:104CF00070BD38B500200090022204216846FCF700
:104D00004CFDBDF800000090BDF80000000A2E49DF
:104D10000870022206216846FCF73FFDBDF800003E
:104D20000090BDF8000040F6FF7101EB802027499C
:104D30000880FEF733FD002404E02046FEF75AFD0C
:104D4000601CC4B2204800788442F6DBFBF70CFEFE
:104D50000020024908700C49087039E08A120020CE
:104D6000060700208C120020A012002066120020EE
:104D700069120020741200207612002065120020B3
:104D800092120020671200208B12002080E100E0C8
:104D90007A120020781200206C1200207E1200206F
:104DA0007C120020F42F0020B41200207212002088
:104DB0009A12002086120020881200206A12002019
:104DC00098120020901200209412002096120020C9
:104DD0006C4908706C4908706C4908706C4908701F
:104DE0006C4908706C4908806C4908806C490880DF
:104DF0006C4908806C4908806C4908706C490870DF
:104E00006C4908806C4908806C4908806C490880AE
:104E100001206C49087000216A480078FFF7F7F913
:104E20000020694908806949087069490870FEF7DF
:104E30003FFC38BD1CB50020019001200090FCF71C
:104E4000E4F86448007840B1022240F60E0168465A
:104E5000FCF7A3FCBDF800000090FCF792FC0446B0
:104E600000BF04F00100C8B15B480078B0B902226D
:104E70004FF4907101A8FCF790FCBDF8040001907C
:104E8000BDF80400C0F340104149087024F011043B
:104E9000BDF80410C8B20021FFF73DFA04F010007D
:104EA000B0B14D48007898B94648007800F010003D
:104EB00070B94448007820F01000012808D024F090
:104EC00010044049097801F00F000021FFF723FA90
:104ED0004148007808B1FFF7B1FC3E48007800284F
:104EE0004FD0BDF8000000F0010030B93549097815
:104EF00001F00F000021FFF70EFA04F4007060B11A
:104F00000020364908800222354801883348FCF7E2
:104F100091FC24F40074FBF76AFFBDF8000000F078
:104F2000020010B12F48007838B1BDF8000000F041
:104F30000200D8B92B480078C0B1FBF7C0FF294860
:104F4000007828B1BDF8000040F40070009004E043
:104F5000BDF8000020F400700090BDF80000009043
:104F6000022240F60E016846FCF764FCFCF709FCDF
:104F7000044600BF04F4807018B124F48074FBF779
:104F8000C7FF1CBD671200206512002066120020BA
:104F900099120020681200209A1200207812002036
:104FA0007A1200207C1200207E120020691200205C
:104FB0008612002088120020A012002092120020E9
:104FC00090120020981200208C1200208E120020D7
:104FD00084120020060700208B120020A21200205D
:104FE0000E0700200707002070B50546FDF70EFEEE
:104FF000044605E02089A84201D1204670BD6468BE
:10500000002CF7D10020F9E72DE9F04184460C4649
:105010001E469089C0F30323177B00212EB3072B74
:1050200002D10020BDE8F081082B0BD190690778F0
:105030001069008900FB07F1C81DC10804B9891C6B
:105040000846EFE7012508E005EB4508106900EB8D
:10505000480040880144681CC5B2BD42F4DDC81D4B
:10506000C10804B9891C0846DCE7072B04D1106984
:105070004088C01DC010D5E70CB90120D2E7082B2D
:1050800004D110690089C01DC010CBE704EB4405B2
:10509000106900EB45004088C01DC010C2E710B584
:1050A00030238370642391FBF3F30478234403706B
:1050B000642391FBF3F403FB1413DAB20A2392FB8B
:1050C000F3F34478234443700A2392FBF3F403FB85
:1050D000142384782344837010BD30B5024694892C
:1050E000C4F30323082B05D109B9106907E014693B
:1050F000A01D04E001EB4105146904EB450030BD3F
:105100002DE9F04705462020A8401FFA80F9FDF759
:105110007DFD04464FF000081FE02089B0F5805F58
:105120001ADB2E4696B194F80CA000270AE0F9B2DB
:105130002046FFF7D2FF808800EA090000B1002670
:10514000781C87B20EB15745F1DD00BF1EB908F1DA
:1051500001001FFA80F800BF6468002CDDD14046D2
:10516000BDE8F0872DE9FC5F05460E4617469846D8
:10517000DDF830B02020A84080B201903088B0F532
:10518000805F0AD1FDF742FD044644B9BBF1000F30
:1051900005D01B208BF8000001E0FB4804688CB3AD
:1051A0002DE02089B0F5805F28DBA946B9F1000F1A
:1051B00019D0207B00904FF0000A0DE051462046A8
:1051C000FFF78BFF80880199084008B14FF0000974
:1051D0000AF1010000F0FF0AB9F1000F02D00098B7
:1051E0008245EBDD00BFB9F1000F06D12089A8F898
:1051F000000008F10208B81E87B200BF64680CB155
:10520000012FCEDC14B12089308002E04FF6FF7010
:105210003080DD4804603846BDE8FC9F2DE9FF5F23
:105220000F4690461C460026D8F81490B8F80C009B
:10523000C0F3032B17B1BBF1070F0BD148460AF09F
:10524000EBFA86B2002C49D03246494620460AF095
:1052500002FB43E0BBF1090F2ED14FF0010A039787
:1052600048460AF0D9FA401C00EB090519E00398FA
:1052700082450DD128460AF0CFFA86B234B12EB15C
:105280003246294620460AF0E6FA00E0002611E000
:105290000AF101001FFA80FA28460AF0BDFA401C04
:1052A00005440398824505DC2878FF2802D0287839
:1052B000FE28DCD100BF00BF86B90C2674B1B34B09
:1052C0000FCB8DE80F0039460DF10900FFF7E7FE1F
:1052D0000D22694620460AF0BEFA00BF304604B0EF
:1052E000BDE8F09F014601F10A007047F0B50446A1
:1052F0000D460021A889C0F30326002C02DD01F130
:10530000100081B2072E01D10020F0BD01236CE016
:10531000082E02D12869821D04E003EB43072869A7
:1053200000EB470210881F281FD00ADCA0F1030001
:10533000092851D2DFE800F01632501731335050AF
:105340001A00B0F5187F12D006DC202829D02E28AC
:105350000AD02F2840D123E0A0F2622010B3012808
:105360003AD120E000BF00BF00BF00BF00BF01F185
:105370000F004FF6F07700EA0701A3420CDA10881D
:105380000B2803D01088B0F5187F02D1508808444C
:1053900081B201F1100081B224E000BF00BF00BF64
:1053A00000BF00BF00BF01F11F004FF6E07700EA29
:1053B0000701A3420FDA108840F26227B84203D0F7
:1053C00010887F1CB84203D15088084481B202E0A3
:1053D00001F1200081B205E0A34202DA50880844BE
:1053E00081B200BF00BF581C83B2A34290DD0846C3
:1053F0008BE70246022940D003DC39B101296ED186
:1054000006E0032952D0222969D125E00020704707
:1054100041F6324082420BD15D480088002807DD0A
:105420005C48007B00F00200002801DD0020EEE770
:1054300041F6334082420ED15748007B00F0020013
:10544000002808DD5248008828B954480088002800
:1054500001DD0020DBE742E041F6334082420BD120
:105460004D48007B00F00200002805DD4848008818
:10547000002801DD0020CAE731E041F632408242D7
:1054800007D14448007B00F00400002801DD002023
:10549000BDE741F63340824207D13F48007B00F030
:1054A0000400002801DD0020B1E718E041F6324099
:1054B000824207D13748007B00F00800002801DD58
:1054C0000020A4E741F63340824207D13248007BF6
:1054D00000F00800002801DD002098E700BF00BFB1
:1054E000122094E72DE9FF4F87B0824689461F4678
:1054F000149CC846B889C0F303200690387B0590F9
:10550000CDF810900698072805D0BAF5805F02DB29
:10551000B86900780590159860B10698072802D000
:10552000BAF5805F03DA05200BB0BDE8F08F05986F
:1055300004901EE00598814501DD1120F4E708F094
:10554000FF013846FFF7C9FD0546A88888B1144811
:10555000007800F00F00297901F00701B0EB410F4E
:1055600007DD287900F0070008B90620DCE71A20DB
:10557000DAE7F869B0B1159800902346FE6949460C
:105580005046099AB047CFE7F0120020C012002021
:1055900092120020F42F00203830002090120020BA
:1055A00098120020BAF5805F4CDAB9F1000F49D0AB
:1055B000BE6949463846FFF790FD05466888C01D1C
:1055C0004FEAE00B0396A9F10100039E56F8206014
:1055D000307800F0010040B30020318821F001064E
:1055E00000BF0BE03188090A21802188B27841EAA6
:1055F00002212180A41CB61C411C88B20BEBDB727B
:10560000B0EB620FEEDB59460BEBD1725210ABEBF5
:105610004202012A08D1218801F47F41218021889A
:10562000328841EA122121800BE030882080708886
:105630006080241D361DABF10402314620460AF07D
:105640000AF991E1002003900290C84683E1D7F85F
:1056500018B00026B8F1000F08D0BAF5805F05DB5E
:1056600008F0FF003946FFF741FE064630110BEB0C
:10567000400B08F0FF013846FFF72FFD0546FE48B6
:10568000007800F00F00297901F00701B0EB410F1D
:105690007DDCC84504D01598002879D0C84577DB53
:1056A000B8F1000F06D10698072803D0059820808E
:1056B000A41C22E1288800902888B0F5E06F12DB56
:1056C0006888082804DC68882F3080B200900AE0DF
:1056D0006888102802D10620009004E068882028FD
:1056E00001D10720009000981F287CD012DC7BD2CB
:1056F000DFE800F03A525C8E9D5D8F9C9EE3C4C54E
:10570000FDFDFDFDFDAFFDFDFDB0FDFDFDFDFDB1B0
:10571000FDFD5E00342844D012DC30283DD008DC8A
:10572000202873D02D2840D02E2873D02F285BD16D
:105730007FE0312832D0322831D03328F7D12FE022
:10574000B0F5187F71D006DC35282BD036282AD04A
:105750003728ECD128E0A0F2612000286FD0012882
:105760006ED00228E3D18EE0159890B1A87800F0B1
:105770000F00002805DDA878304400F00F0000B9C4
:10578000A41CA878C0F3031004EB400403E0B5E0C8
:10579000DDE01820C8E6ACE000BF00BF00BF00BFDE
:1057A00000BF00BF00BF00BF00BF00BF00BF00BF01
:1057B00000206988B14A32F8111006F00F029140BA
:1057C00089B20191BBF8000006F00F0109B9002170
:1057D000218021882180159939B12188019A0240C0
:1057E0001143218009E016E081E00199014006F0B3
:1057F0000F02114122881143218021882180A9783C
:10580000314401F00F0101B9A41C72E012E001E083
:1058100000BF00BF00BF06F00F0008B1052083E6FF
:10582000BBF800002080A41C63E029E000BF00BF9B
:1058300000BF00BF06F00F0018B1052074E620E09D
:1058400020E0BBF800002080BBF802006080241D2F
:105850004FE000BF00BF06F00F0008B1052063E66F
:10586000BBF800002080BBF802006080BBF8040099
:10587000A080BBF80600E08008343AE000BF00BF1B
:1058800000BF00BF00BF06F00F0008B105204BE6C7
:105890006888C01DC2105946204609F0DCFF6888A0
:1058A00020F00F000F30001104EB4004A87800F046
:1058B0000F0008B1207820801BE006F00F0008B12F
:1058C000052031E66888C01DC2105946204609F0FF
:1058D000C2FF688820F00F000F30001104EB400475
:1058E000A87800F00F0008B12078208001E018208F
:1058F0001AE600BF0120039000BF28E0002006F058
:105900000F0109B900212180A97801F00F010029B8
:1059100007DDA978314401F00F0111B9A41C002161
:105920002180002004E0A41C00212180411CC8B279
:10593000A978C1F303118142F5DC297901F007014F
:1059400011B90621029101E01A21029100BF08F16C
:1059500001001FFA80F8049880457FF778AE03981D
:1059600008B90298E0E500BF0020DDE52DE9FF4F12
:1059700089B006468B469A46169CD846BAF80C0063
:10598000C0F303200890002007909AF80C000690BE
:1059900000200590CDF810B0089807281BD0DAF841
:1059A0001800007807900798A8B941F61040864281
:1059B00003DB41F62F4086420BDDB6F5B05F02DB1C
:1059C000B6F5C05F05DBB6F5D05F04DBB6F5E05F8A
:1059D00001DA06980790179880B10898072803D134
:1059E00005200DB0BDE8F08FBBF1000F03D10B987F
:1059F00008B120780790079804901BE0079883452A
:105A000001DD1120EDE759465046FFF766FB0546DC
:105A10001948007800F00F01287900F03800B1EB48
:105A2000A00F07DD287900F0380008B90720D8E773
:105A30001A20D6E7BBF1000F1ADD41F6104086426E
:105A400003DB41F62F4086420BDDB6F5B05F02DB8B
:105A5000B6F5C05F05DBB6F5D05F09DBB6F5E05FF4
:105A600006DADAF81810087808B10121059100BFAC
:105A7000DAF8200070B103E09812002068470208AD
:105A8000179800902346DAF82070594630460B9A52
:105A9000B847A6E700200390072002900B9808B9AA
:105AA00000209EE7D846B1E1DAF818704FF00009FF
:105AB00008F0FF015046FFF710FB054608F0FF0015
:105AC0005146FFF713FC8146D648007800F00F00DE
:105AD000297901F03801B0EBA10F6EDCB8F1000FAD
