:020000040801F1
:1000000010500020CDA70108D5060108D706010829
:10001000DB060108DF060108E30601080000000016
:10002000000000000000000000000000DFA7010841
:10003000E706010800000000C9060208ADD6010865
:10004000E7A70108E7A70108E7A70108E7A7010854
:10005000E7A70108E7A70108E7A70108E7A7010844
:10006000D91F0108E71F0108E7A70108E7A7010852
:10007000E7A70108E7A70108E7A70108E7A7010824
:10008000E7A70108E7A70108E7A70108E7A7010814
:10009000D5700108E7A70108E7A70108E7A701084D
:1000A000E7A70108E7A70108E7A70108E7A70108F4
:1000B0004D140108ED15010809160108E7A701080C
:1000C000E7A70108E7A70108E7A70108E7A70108D4
:1000D000E7A70108C5A60108252C0108E7A7010824
:1000E000E7A70108E7A70108E7A70108E7A70108B4
:1000F000E7A70108E7A70108E7A70108E7A70108A4
:10010000E7A70108E7A70108E7A70108E7A7010893
:10011000E7A70108E7A70108E7A70108E7A7010883
:10012000E7A70108E7A70108E7A70108E7A7010873
:10013000E7A70108E7A70108E7A70108E7A7010863
:10014000E7A70108E7A70108E7A70108E7A7010853
:10015000E7A70108E7A70108E7A70108E7A7010843
:10016000E7A70108E7A70108E7A70108E7A7010833
:10017000E7A70108E7A70108E7A70108E7A7010823
:10018000E7A70108E7A7010800F002F800F064F80B
:100190000AA090E8000C82448344AAF10107DA45E2
:1001A00001D100F059F8AFF2090EBAE80F0013F0D0
:1001B000010F18BFFB1A43F001031847D85701007D
:1001C000F857010010F8013B0A4413F0030408BF7C
:1001D00010F8014B1D1108BF10F8015B641E05D01B
:1001E00010F8016B641E01F8016BF9D1002D15D0D8
:1001F00010F8014B03F00C030C2BA1EB04040ABF15
:1002000010F8013BA4EB8314A4EB032405F10103D4
:1002100014F8016B5B1E01F8016BF9D5914238BFF0
:1002200010F8013BD1D3704700230024002500269D
:10023000103A28BF78C1FBD8520728BF30C148BF49
:100240000B6070471FB511F042FF9DE8030010F0EE
:1002500023FC1FBD10B510BD10F0F2FC1146FFF7D6
:10026000F1FF00F0EBF910F010FD03B4FFF7F2FF1F
:1002700003BC10F041FD000030BF72B6704762B69B
:10028000704780F30888704770470020704700204F
:1002900070470146002070470020704700207047DB
:1002A000002070472DE9F34F81B081460020009077
:1002B000002780460025002482468346002600BF92
:1002C00024E0E94931F8150005F034F80446B4B1EA
:1002D000A069B0F800A000260EE0711CC8B221464B
:1002E00005F0AAF9A16901EBE00B9BF8000040447E
:1002F0001FFA80F8701C86B25645EEDB04E04FF022
:1003000000082520009006E0681C85B2D648801EB3
:100310000088A842D5DC00BF08F107004FEAE008DA
:10032000009850BB002522E0D04931F8150005F0B7
:1003300001F80446ACB1A069B0F800A000260DE0B9
:10034000711CC8B2214605F077F9A16901EBE00BF9
:100350009BF80000384487B2701C86B25645EFDB2C
:1003600003E000272420009006E0681C85B2BF4807
:10037000801E0088A842D7DC00BFF81DC710A9F86E
:1003800000700298A0F800800098BDE8FE8F10B5BC
:1003900004467222B649204610F097FA10BD10B5F7
:1003A000044662222146B34810F08FFA10BD704710
:1003B00010B5AF49891EAF48801E01F0B4FAAC49B0
:1003C000891EAC48801E01F09CFBA948801E02F0EB
:1003D0004CFAA848801E02F0D3F8A548801E01F010
:1003E000DDFB10BD0520704710B5A34890F848000C
:1003F00008287DD2DFE800F004102A639CC5E0E401
:1004000001209E4908709E48007820B100209C4938
:10041000087009F0AAF9ECE00120984908709848A2
:10042000007820B100209649087009F09EF909F083
:100430008AF90220904981F84800084690F8440063
:1004400020F00100401C81F84400D2E08C48007884
:1004500028B300208A49087009F087F98948007894
:10046000E8B989480078401C874908700846007838
:10047000962814DD002008700120844908607E4819
:1004800090F8440020F00200801C7B4981F8440071
:1004900000207A4908700320774981F848007C4899
:1004A000007801280AD109F056FF7A48007801281F
:1004B00004D100207749087009F002FE99E07648DF
:1004C000007830B300207449087009F04EF96D4887
:1004D000007801281ED171480078401C6F490870CF
:1004E00008460078052818DD00200870674900E0FC
:1004F0007EE00860604890F8440020F002005E4909
:1005000081F8440001205D49087002205A4981F8B1
:10051000480002E000206149087009F01CFF5D48B6
:10052000007820B100205B49087009F0C9FD60E047
:1005300009F011FF5A480078012821D15948007864
:10054000F0B900205649087009F0EBFF56480078D2
:10055000401C554908700846007803280DDB002030
:100560004F49087051480078434981F848000020FD
:100570004D4908704E49087002E001204C4908704E
:1005800037E00020474908704348007820B1002038
:100590004149087009F0E9F809F0DDFE45480078A6
:1005A000012808D142F210700DF0DDF80020414919
:1005B000087009F06AFC1CE0002009F066FC18E0F5
:1005C0003448007880B100203249087009F078FD85
:1005D000002039490860284890F8450020F00400C0
:1005E000001D254981F8450000202449087000E0DD
:1005F00000BF00BF10BD10B5044601202F49087090
:1006000000BFFFF7F1FE2D4800780128F9D010BD9A
:1006100070B5044600BF0DF09FFB10F02DF80546A5
:100620000723274A0021AFF231000EF0D9FFFF2047
:100630000FF056FA284610F023F870BD10B5214887
:100640002149086001F0E2FA204908700DF046FAED
:100650000C231F4A0021AFF247000EF0C1FF0DF03E
:1006600063FB002010BD0000D2050020D60500204D
:10067000DE0500205206002000170020EB060020B7
:1006800006000020EA060020EC0600208402424218
:10069000090000200500002007000020ED060020D2
:1006A0000C0000200D000020170000201600002084
:1006B0000F0000200E000020B48242423B120020B6
:1006C000102800200000010808ED00E0E7060020E7
:1006D000102A0020704700BFFEE700BFFEE700BF02
:1006E000FEE700BFFEE770470CB5002001900090C8
:1006F0007648006840F480307449086000BF734851
:10070000006800F4003000900198401C01900098AF
:1007100018B90198B0F5A04FF1D16C48006800F409
:10072000003010B10120009001E0002000900098FE
:10073000012846D165484030006840F08050634948
:10074000403108606248006840F4404060490860F9
:100750005E48083000685D49083108600846006856
:1007600040F4004008600846006840F4A05008606B
:100770005848091F0860081F006840F08070091F72
:10078000086000BF5148006800F000700028F9D0F0
:1007900040F20570504908604C480830006820F06D
:1007A00003004A49083108600846006840F002002A
:1007B000086000BF45480830006800F00C000828B9
:1007C000F8D10CBD10B54548006840F470004349AD
:1007D00008603E48006840F001003C490860002085
:1007E0003A4908310860394800683D4908403749AE
:1007F00008603C48091D0860081F006820F480203C
:10080000091F0860002031490C310860FFF76CFFB8
:100810004FF0006031498039086010BD70B500208C
:100820000022022300240221284D08352D6805F0FE
:100830000C0020B1042806D0082834D107E02A4D46
:100840002A4E356033E02A4D284E35602FE01F4D8B
:100850002D1D2D68C5F380541C4D2D1D2D6805F0F0
:100860003F0154B1224DB5FBF1F5184E361D3668E7
:10087000C6F3881605FB06F209E01B4DB5FBF1F542
:10088000124E361D3668C6F3881605FB06F20F4D6C
:100890002D1D2D68C5F301456D1C6B00B2FBF3F5F2
:1008A000124E356003E0104D104E356000BF00BFA2
:1008B000064D08352D68C5F303150E4E705D0B4DC2
:1008C0002D68C540094E356070BD000000380240FB
:1008D0000070004008544007003C024088ED00E0F2
:1008E000FFFFF6FE103000240024F400F006002084
:1008F00000127A00F406002030B503460024488830
:10090000401C82B28888904200D100220888904220
:1009100001D1072030BD4D8801F1080040F8253095
:100920004A800020F6E710B501460A884B889A42B3
:100930000ED00A8801F1080353F82200531C9AB222
:100940000A800B888C88A34201D100230B8000E031
:10095000002010BD08B52220F84908804FF48070AF
:10096000F74908800001F74908804FF48450F649A0
:1009700008800020F549088048800A2088800020EF
:10098000F349088048800A20888080200FF0D8FE34
:10099000F04908600020F0490860F0490860F0491B
:1009A0000860F0490870022240F60E01684600F027
:1009B000E2FEBDF8000020F400700090022240F634
:1009C0000E01684600F024FF0020E7490870E7495F
:1009D0000870E7490870E7490870E7490870E74977
:1009E000087008BD70B50025002003F09DF804468E
:1009F0006088D24908802088D2490880012003F00D
:100A000093F804466088CE4908802088CE49088043
:100A1000CC480088C94909880844CB4909888842DC
:100A20000ADDC9480088C64909880844C5490988BB
:100A3000884201DD162070BD002003F09BF80120E4
:100A400003F098F8BD480188C24800680FF0BCFF69
:100A5000C048006868B90120C9490870BD480068ED
:100A60000021016041600181BA48006820B9022577
:100A700002E00020C24908702846DCE738B50020B3
:100A8000B949087003F05CF8012003F059F8B24846
:100A9000006818B1B04800680FF081FEB0480068E7
:100AA00048B1AF480068AC490968884203D0AC48F7
:100AB00000680FF074FEA948006878B1A748006884
:100AC000A5490968884209D0A4480068A449096872
:100AD000884203D0A14800680FF061FE00209E49C3
:100AE00008609E4908609E4908609E490870009011
:100AF000022240F60E01684600F03DFEBDF80000FF
:100B000020F400700090022240F60E01684600F0CA
:100B10007FFE002095490870954908709549087036
:100B2000954908709549087000BF8848FFF7FBFE9B
:100B300004461CB120460FF032FE0024002CF4D1F4
:100B400000BF8348FFF7EFFE04461CB120460FF0BC
:100B500026FE0024002CF4D106F0FEFF38BD70B54F
:100B6000044688480078012806D1A088C0F30320F5
:100B7000042801D0022070BDA088C0F30320032800
:100B800002D0042821D104E0204602F03DFF0546B2
:100B90001DE020887C49088060884880A088888083
:100BA000E08808812189608941EA00417648C16076
:100BB0002088821F04F10C01734810300FF085FE6D
:100BC000714806F019FB054601E0022500BF00BF91
:100BD0002846D0E7F8B504466C48007800F00F00CE
:100BE000012801D1F020F8BD5F48007808B9F02055
:100BF000F9E75E48007808B10720F4E72588A81DCA
:100C000082B251480188204600F002FE0020009088
:100C1000022240F60C01684600F0ADFDBDF8000070
:100C20000090BDF8000000F40060F8B94448017875
:100C3000A81D081AC6B2002055490880022E09DAFC
:100C4000A81D40084700C6F10202E11950480FF004
:100C50003CFE00BF3C480088394A12881044801E80
:100C600081B202224A4800F0D3FD00BF3B48006831
:100C700010B94848374908603848046001203B49AA
:100C800008700020AFE770B504460D4600263F48C7
:100C9000007800F00F00012801D1F02070BDA0887D
:100CA00020F47040A0803548007800F0070010B9AB
:100CB000012032490870A0883049097840EA0130A3
:100CC000A0802046FFF786FF70B121492046FFF73C
:100CD00013FE064616B145F080050AE02748007865
:100CE000401C2649087004E024480078401C234931
:100CF000087005F0800030B105F07F001D490978CB
:100D000008431C4908703046C8E72DE9F041044605
:100D10000026A08805132788B7F5807F3CDD0420D6
:100D20002080A08820F47060A0800120E08008214D
:100D3000218100212046FFF7A6FF4CE00A07002092
:100D4000080700200C0700200E070020482C002078
:100D5000142C0020140700201C0700201807002076
:100D600020070020070700200607002005070020B5
:100D700004070020120700201007002011070020A0
:100D800024070020641200207C2C002098120020F0
:100D9000A2120020142B00201DB1B048007885421B
:100DA00015D0AE480570AE492046FFF7A5FD0646B2
:100DB0008EB104202080A08820F47060A0800120E3
:100DC000E080268100212046FFF75DFF03E02046FA
:100DD0000FF0E5FC0024BDE8F08110B50020A1492A
:100DE0000870A148006848B1A048006830B99E4822
:100DF00000680FF0D4FC00209B4908609C48006804
:100E0000994908609948006838B198480068FFF728
:100E1000E1FE00209549086008E09648FFF783FD51
:100E2000044614B12046FFF7D5FE00BF9248007873
:100E300050B39148007800F0010068B18F48006815
:100E400006F0FDFE06F0B9FEF0B18B48007820F008
:100E500001008949087027E08748007800F0020007
:100E600098B100248448007820F00200824908707C
:100E70008248006802F0ECFD04462CB17E48007800
:100E800040F002007C4908700EE07B48007800F0DA
:100E9000400048B17848007820F04000764908705A
:100EA0007648006806F02FFB10BD10B56E4800684C
:100EB000D8B16D4804686B48007878B16B48006819
:100EC00060B9012002F03CFE69480068674908608B
:100ED000012002F04FFE0020624908702046FFF713
:100EE00079FE00206049086000BF6548007808B9B5
:100EF000012000E000206249087010BD1CB50222EC
:100F00006048018801A800F036FCBDF8040001909B
:100F10005D48007801281AD10A200FF011FC044620
:100F2000A4B1002020606060208104202080A0887F
:100F300020F47060A0800120E08007212181002141
:100F40002046FFF7A0FE20460FF029FC00BFBDF8A9
:100F50000400801D80B201904248007810B94648D4
:100F6000007818B101204949087042E00020474943
:100F70000870BDF8040046490988884202DD4448EB
:100F800000880190424801883C4800680FF01CFD31
:100F90003A48006818B901203C4908701CBDBDF8EA
:100FA0000420384801883548006800F0E4FB002040
:100FB0000090022240F60401684600F0DCFBBDF818
:100FC00000000090BDF8000000F4006068B100204F
:100FD000304908802B4800882D4A12881044801E12
:100FE00081B202222B4800F0C6FB24480068FFF7BC
:100FF0008CFE00BFD2E770B5002400BF0025184862
:10100000FFF791FC04461CB12046FFF7A8FD0546FA
:1010100065B104202080A08820F47060A0800120A9
:10102000E080258100212046FFF72DFE002CE5D130
:101030001948007860B10B48007848B906F0BDFD4A
:1010400030B906F06FFD0546284606F0C0FD00BF2A
:101050000E48007808B1FFF751FF70BD100700205F
:10106000482C0020050700201C0700202007002036
:1010700018070020142C002012070020140700205D
:10108000070700200C070020240700200407002089
:101090000A070020A2120020060700207FB505469F
:1010A0000C460121084609F08EFF0295ADF8044078
:1010B0000020ADF80600ADF80C0001A94FF080400B
:1010C0000AF083F90122114690070AF01FFE012160
:1010D00088070AF003FA1C208DF8000001208DF823
:1010E000010003208DF8020001208DF803006846FE
:1010F00009F091FB7FBD00B589B00121032009F003
:1011000019FF0121022009F05EFF0121880309F087
:101110006BFFC020079002208DF8200003208DF87F
:10112000210001208DF822008DF8230007A9FE4838
:1011300009F062FC0120079002208DF820000320B6
:101140008DF8210001208DF8220002208DF8230067
:1011500007A9F64809F050FC02220621F24809F0DE
:10116000D6FC02220721F04809F0D1FC022200211E
:10117000EE4809F0CCFC0020ADF80400ADF8060004
:101180004FF6FF7002900020ADF80C0001A9E8486E
:101190000AF01BF902231A460321E5480AF089FEEA
:1011A0000820ADF810000020ADF81800ADF81200CE
:1011B000ADF816000120ADF8140004A9DC480AF0CF
:1011C000DBFC0020DA492431086001220821D848DC
:1011D0000AF09CFD0121D6480AF080F91D208DF807
:1011E000000000208DF8010001208DF802008DF82C
:1011F0000300684609F00FFB09B000BD70B5044656
:101200000D46CB480088C0F300102060C8480AF0A3
:1012100029F9286070BD7FB505460C4601210420E0
:1012200009F0D1FE0295ADF804400020ADF80600AB
:10123000ADF80C0001A9BF480AF0C7F80122114619
:10124000BC480AF063FD0121BA480AF047F91E20A4
:101250008DF8000001208DF801008DF802008DF856
:101260000300684609F0D7FA7FBD10B5B248007890
:101270000D280ED003DC38B1012871D12BE00E28E7
:101280004FD00F286CD147E02021AC4809F030FC4A
:1012900066E0AB480088401CA949088008460088E1
:1012A000B0F5FA7F04DC2021A44809F023FC11E00A
:1012B000A3480088B0F57A7F04DA20219F4809F01E
:1012C00017FC07E09E480088B0F57A7F02DB00201B
:1012D0009B49088044E09B480088401C994908804D
:1012E00008460088012804DC2021944809F002FC0B
:1012F00011E094480088B0F57A7F04DA20218F4805
:1013000009F0F6FB07E08F480088B0F57A7F02DB32
:1013100000208C49088023E02021884809F0EAFB5E
:101320001EE089480088401C8749088008460088DC
:10133000642804DC2021814809F0DCFB0FE08248AE
:101340000088C82804DA20217C4809F0D1FB06E097
:101350007D480088C82802DB00207B49088000BF48
:1013600000BF10BD10B52DED088B7848007801281E
:1013700064D177480088B0F57A7F02DB0020744999
:1013800008807348008810F0C3FB41EC1B0B9FEDF5
:10139000710B53EC102B10F00BFC41EC1A0B10F0FE
:1013A00043FB00FB00F4204610F09BFB41EC190BC3
:1013B0006A4890ED000B53EC102B51EC190B10F018
:1013C00027F941EC180B9FED660B53EC102B10F036
:1013D00023FD624A03C2614890ED000B624880ED34
:1013E000000B9FED620B53EC102B5C4890ED000B53
:1013F00051EC100B10F0A0FB05D89FED5C0B57488B
:1014000080ED000B1FE09FED5B0B53EC102B53485E
:1014100090ED000B51EC100B10F0C8FC0CD25748AB
:1014200090F8460020F00100401C544981F8460025
:10143000072081F8480006E000BF04E09FED4B0B59
:10144000464880ED000BBDEC088B10BD10B50121A6
:1014500088070AF072FC012864D149480078401CD2
:101460004749087008460078022813DB4548007891
:10147000401C4449087044480078401C42490870A8
:101480004248008818B901F006FD05F053FE00201F
:101490003B4908703949C88900EBD071394A127844
:1014A000B2EB610F05DD0120394908700020354994
:1014B000087035480078052834DB00203249087070
:1014C00034480078401C33490870012032490870C4
:1014D0002A4991F8480008F013F82E4800780228AD
:1014E0007FDB00202B4908702C480078401C2B49DA
:1014F000087001202A4908702848007819280ADB5A
:1015000001202849087000202449087026480078E6
:10151000401C254908702448007804284FDB1B48EC
:10152000008843E05DE0000000000240000402404B
:1015300000040040000800408F1200200008024014
:101540002C0700202E07002030070020EB0600208B
:101550004C1600207B14AE47E17A843F3807002008
:10156000000000000000E03F4007002000000000F5
:10157000000000000000000000409F400017002015
:1015800048070020490700204A070020E406002001
:10159000050000204B070020060000204C0700201B
:1015A00007000020080000204D070020012803D17B
:1015B00009F0C4F809F0E7F8002029490870294823
:1015C000007801280DD128480088401C2649088051
:1015D00008460088C82804DB002008800120234931
:1015E0000870012188070AF0B9FB10BD10B5082169
:1015F0001F480AF0A2FB012805D106F052FD082180
:101600001B480AF0ABFB10BD10B5012119480AF0C8
:1016100094FB012822D118480068401C1649086034
:1016200008460068D0B1072001218140134A4309D0
:1016300042F8231000BF01F0F3FD01210D480AF02C
:101640008DFB0720012181404209920002F1E02236
:10165000C2F8001100BF00200749086010BD00005B
:101660004D0700200F000020120000200C00002079
:1016700000040040000800402807002080E100E04E
:1016800010B5FEF7FAFD1021FE4809F033FA0120EB
:101690000CF03EF8002000F0FFFDFB490870FA2036
:1016A00000F0FAFDF8494870FF2000F0F5FD04460F
:1016B00001200CF02DF81021F24809F019FA00BFB2
:1016C000FEF7DDFD10BD10B51021EE4809F012FA4D
:1016D00001200CF01DF8002000F0DEFDEA49087042
:1016E000002000F0D9FDE84948701021E54809F0D4
:1016F000FFF910BD38B504460D4645EAC40080B276
:1017000000901021DF4809F0F5F901200CF000F8F5
:101710009DF8010000F0C0FDDB4948709DF8000015
:1017200000F0BAFDD849087038BD7CB504460D46B6
:1017300045EAC40080B200901021D24809F0DAF9DD
:1017400001200BF0E5FF9DF8010000F0A5FD0190E0
:101750009DF8000000F0A0FD01907CBD704710B521
:10176000FFF78EFFC848008810BD10B5FFF7ABFF2C
:10177000C548008810BD2DE9F04105460C461646C7
:10178000B0462F4616E0FEF778FD02212046FFF70F
:10179000B1FF1021BB4809F0ADF9FF2000F07CFD3E
:1017A00038707F1CFEF76BFD1021B64809F0A0F9D8
:1017B000601C84B2B8F10000A8F101011FFA81F8A1
:1017C000E1DCBDE8F0812DE9F04704460D46164600
:1017D000B0464FF00009274602212846FFF7A5FF33
:1017E00009E0B8F1000F01D14FF0FF09484600F0C1
:1017F00053FD07F8010BB8F10000A8F101011FFA31
:1018000081F8EEDC10219F4809F072F9BDE8F087FD
:101810002DE9F84305460C461646B0462F4616E01D
:10182000FEF72BFD04212046FFF764FF10219548A9
:1018300009F060F9387800F02FFD00907F1CFEF76A
:101840001EFD10218F4809F053F9601C84B2B8F1D5
:101850000000A8F101011FFA81F8E1DCBDE8F8837E
:101860002DE9F84304460D461646B04627460421A6
:101870002846FFF75AFF06E0387800F00DFD00908B
:101880007F1CFEF7FCFCB8F10000A8F101011FFA73
:1018900081F8F1DC10217B4809F02AF9BDE8F883D2
:1018A00010B500F008FD00F031FC10BD38B5002483
:1018B0000121764809F01CF90121754809F01AF94F
:1018C0004BF6C47000F0C9FC00900121704809F08B
:1018D0000FF900BF11E001216D4809F00BF90A2052
:1018E0000BF016FF002000F0B8FC6A4921F8140044
:1018F0000121674809F0FCF8641C0A2CEBDB664800
:101900000078C043644908700846007828B14FF455
:101910008061624809F0ECF804E04FF480615F48B0
:1019200009F0E8F838BD10B501235D4C237008308C
:1019300010F8043C5B4C238010F8023C5A4C238086
:1019400003785A4C2370437863708378A370C3780C
:10195000E37003792371437963718379A371C37948
:10196000E371037A2372437A6372837AA372C37A30
:10197000E372037B2373437B6373837BA373C37B18
:10198000E373037C2374437C6374837CA374C37C00
:10199000E374037D2375437D6375837DA375C37DE8
:1019A000E375037E2376437E6376837EA376C37ED0
:1019B000E376037F2377437F6377837FA377C37FB8
:1019C0000838E3770023364C2370394B1B78002B03
:1019D00076D0384B1A8804E00023374CA354531CAC
:1019E0009AB2202AF8DB0023314C2370334B1B883A
:1019F000183121F8043C2F4B1B8821F8023C2E4B58
:101A00001B780B702C4B5B784B702B4B9B788B703F
:101A1000294BDB78CB70284B1B790B71264B5B79FC
:101A20004B71254B9B798B71234BDB79CB71224B0F
:101A30001B7A0B72204B5B7A4B721F4B9B7A8B721B
:101A40001D4BDB7ACB721C4B1B7B0B731A4B5B7BE6
:101A50004B73194B9B7B8B73174BDB7BCB73164BF9
:101A60001B7C0B74144B5B7C4B74134B9B7C8B74F7
:101A7000114BDB7CCB74104B1B7D0B750E4B5B7DD0
:101A80004B751EE000180240580900200008024073
:101A900000000240802D0020500900200014024068
:101AA0005A0900206009002064090020F82D002058
:101AB0006C09002068090020B82D00205E09002074
:101AC0001EE0FE4B9B7D8B75FC4BDB7DCB75FB4B92
:101AD0001B7E0B76F94B5B7E4B76F84B9B7E8B76B1
:101AE000F64BDB7ECB76F54B1B7F0B77F34B5B7FA7
:101AF0004B77F24B9B7F8B77F04BDB7FCB771839A3
:101B000010BDEF4A1278012A25D1EE4A128821F839
:101B1000382FED4A12884A80EC4A12888A80EC4AB3
:101B200012788A71EA4A5278CA71E94A92780A723E
:101B3000E74AD2784A72E64A12798A72E44A5279BE
:101B4000CA72E34A92790A73E14AD2794A73383900
:101B50000022DB4B1A700122DE4B1A7030F8282F5E
:101B6000DD4B1A804288DD4B1A608288DC4B1A807C
:101B70008279DC4B1A70C2795A70027A9A70427A72
:101B8000DA70827A1A71C27A5A71027B9A71427B38
:101B90002838DA710022CF4B1A70704710B52DED3E
:101BA000048B0446D04840882A2148430F2190FBEB
:101BB000F1F0A080CC488088C0F30B002A2110FBF4
:101BC00001F00F2190FBF1F0E080C7494989C1F392
:101BD0000B000FF086FF9FEDC50B53EC102B0FF0A1
:101BE000CBFD0FF051FFA081BF498989C1F30B00E4
:101BF0000FF077FF9FEDBD0B53EC102B0FF0BCFDEA
:101C00000FF042FFE081BDEC048B10BD30B5A3B0F6
:101C1000032020901F901E901D901C901B901A90E6
:101C20001990189017901690159014901390129088
:101C30001190002010900F900E900D900C900B9032
:101C40000A900990089007900690059004900390E0
:101C5000029001904FF4A06008F0D8FDA8200BF08E
:101C600031FD00F0C3FB00F0F5FB00F08DFD07F047
:101C7000ADFB07F0FDF907F00CFA4FF4964008F0C1
:101C8000C4FC06F0DFFB06F011FE06F0CBFF0024DB
:101C90000BE14FF40061974808F010FF054610A8CB
:101CA0000223062220A90090284600F0B1FDC0437F
:101CB000914908704FF480518E4808F0FFFE0546A8
:101CC0000FA8022306221FA90090284600F0A0FDBD
:101CD000C043894908704FF40051864808F0EEFE71
:101CE00005460EA8022306221EA90090284600F0F1
:101CF0008FFDC043804908704FF480417D4808F053
:101D0000DDFE05460DA8022306221DA900902846E7
:101D100000F07EFDC043784908704FF4806175483B
:101D200008F0CCFE05460CA8022306221CA9009050
:101D3000284600F06DFDC0436F4908704FF40071F4
:101D40006C4808F0BBFE05460BA8022306221BA91F
:101D50000090284600F05CFDC04367490870802170
:101D6000664808F0ABFE05460AA8022306221AA917
:101D70000090284600F04CFDC0435F4908704021A8
:101D80005E4808F09BFE054609A80223062219A911
:101D90000090284600F03CFDC043574908702021C0
:101DA000544808F08BFE054608A80223062218A90D
:101DB0000090284600F02CFDC0434F4908700821D0
:101DC0004C4808F07BFE054607A80223062217A907
:101DD0000090284600F01CFDC043474908700421CC
:101DE000444808F06BFE054606A80223062216A901
:101DF0000090284600F00CFDC0433F4908704FF4A6
:101E000000413E4808F05AFE054605A80223062276
:101E100015A90090284600F0FBFCC0433649087025
:101E20004FF48041354808F049FE054604A80223D6
:101E3000062214A90090284600F0EAFCC0432E496F
:101E400008704FF400612D4808F038FE054603A8DD
:101E50000223062213A90090284600F0D9FCC043B3
:101E6000254908704FF48051244808F027FE0546A4
:101E700002A80223062212A90090284600F0C8FCFE
:101E8000C0431D4908704FF400511C4808F016FE6D
:101E9000054601A80223062211A90090284600F059
:101EA000B7FCC04314490870641C202CFFF6F1AE47
:101EB000FFF721F9012222A9114823E0B82D0020C3
:101EC00028130020101300201413002012130020E8
:101ED000301300205B090020181300201C13002081
:101EE0001A13002038130020802D00209A99999908
:101EF0009999F93F001802405C090020000C02404B
:101F000000000E080EF0ADFF2298B0F5966F2FD0AE
:101F10002298B0F5166F2BD02298B0F5965F27D097
:101F20002298B0F5165F23D02298B0F5615F1FD0DC
:101F30002298B0F5964F1BD02298B0F5164F17D0C7
:101F40004DF6C0212298884212D02298B0F5614FF8
:101F50000ED02298B0F5E13F0AD02298B0F5FA3FB2
:101F600006D02298B0F57A3F02D04FF4E1302290AB
:101F7000229800F0AEFE012221A916480EF071FF52
:101F800021980A2819D02198142816D0219832288F
:101F900013D02198642810D021987D280DD0219845
:101FA000FA280AD02198B0F5FA7F06D02198B0F52A
:101FB0007A7F02D04FF4FA702190219804F0C6FF86
:101FC00042F2CF010920FFF769F8FEF758F9002027
:101FD00023B030BD04000E0810B501F085F90420CF
:101FE0000AF041FA10BD10B501F040FA08200AF0DD
:101FF0003AFA10BD0EB50121880308F0F5FF012162
:10200000002009F0FCF80220009000208DF8040068
:102010000C208DF8050001208DF8060068460AF0B6
:10202000B1F907208DF8080000208DF809008DF81F
:102030000A0001208DF80B0002A808F0ECFB0EBD91
:102040000EB50121880308F0CFFF0221042009F01A
:10205000D6F80420009000208DF804000C208DF8A4
:10206000050001208DF8060068460AF08BF908206B
:102070008DF8080000208DF8090001208DF80A0075
:102080008DF80B0002A808F0C6FB0EBD0EB50121AD
:10209000880308F0A9FF0321042009F0B0F8082004
:1020A000009000208DF804000C208DF80500012020
:1020B0008DF8060068460AF065F909208DF80800D9
:1020C00001208DF809008DF80A008DF80B0002A898
:1020D00008F0A1FB0EBD01228A400B4B1A6048B1EB
:1020E000094A143A126801238B401A43064B143BE9
:1020F0001A6008E0044A143A126801238B409A439C
:10210000014B143B1A607047143C014000B587B086
:102110000121072008F00EFF0121880308F053FF7A
:1021200005220221AA4808F0F2FC05220321A84852
:1021300008F0EDFC05220A21A64808F0E8FC012081
:1021400005908DF8180000208DF81A0003208DF8F6
:10215000190001208DF81B0005A99F4808F04CFCD0
:102160000C20059002208DF8180000208DF81A0030
:1021700003208DF8190001208DF81B0005A9944853
:1021800008F03AFC4FF48060059002208DF81800AA
:1021900000208DF81A0003208DF8190001208DF819
:1021A0001B0005A98B4808F027FC022005900020A1
:1021B0008DF8180003208DF8190001208DF81B0000
:1021C00005A9834808F018FC012005908DF8180037
:1021D00000208DF81A0003208DF8190001208DF8D9
:1021E0001B0005A97A4808F007FC0121880308F0C4
:1021F0003FFF02200BF08CFA00214FF4804008F0E2
:1022000037FF0020ADF800004FF48270ADF80200F7
:102210004FF40060ADF804000220ADF80600002085
:10222000ADF808004FF40070ADF80A000820ADF8D2
:102230000C000020ADF80E000720ADF81000694634
:1022400066480AF065F9012164480AF05BFA6021EA
:1022500062480AF047FB07B000BD10B5044600BF56
:1022600002215E480AF018FB0028F9D021465B489D
:102270000AF0C9FA00BF022158480AF00DFB0028F5
:10228000F9D000BF012155480AF006FB0028F9D01B
:1022900052480AF0B5FA10BD01465148018000BF0E
:1022A0004F48001F008800F001000028F8D04C487B
:1022B0000088C0B2704710B588B00121642008F0D2
:1022C00039FE0121C80308F07EFE06220A2140489B
:1022D00008F01DFC06220B213D4808F018FC0622E0
:1022E0000C213B4808F013FC2020069001208DF8BB
:1022F0001C0000208DF81E0002208DF81D0001201A
:102300008DF81F0006A9374808F076FB10200690CC
:1023100001208DF81C0000208DF81E0003208DF890
:102320001D0001208DF81F0006A92F4808F064FB4E
:1023300010212D4808F0DCFB4FF4E05006900220FD
:102340008DF81C0000208DF81E0003208DF81D0064
:1023500001208DF81F0006A91D4808F04DFB012142
:10236000C80308F096FE02200BF0D2F900214FF4CA
:10237000004008F08EFE0020ADF804004FF482709B
:10238000ADF806000020ADF808000220ADF80A0004
:102390000120ADF80C004002ADF80E000020ADF8B1
:1023A0001000ADF812000720ADF8140001A90C4888
:1023B0000C380AF0ADF8012109480C380AF0A2F9EE
:1023C00000BFFF20FFF768FF044608B010BD000003
:1023D00000080240000402400000024000380040B3
:1023E0000C3C004000140240001802401CB50121C2
:1023F000242008F09FFD4FF4E160009001208DF84B
:10240000040000208DF8060003208DF8050001204F
:102410008DF807006946D64808F0EEFA4FF4E161FE
:10242000D34808F065FB3020009001208DF80400AF
:1024300000208DF8060003208DF8050001208DF89E
:1024400007006946CB4808F0D7FA3021C94808F0A0
:102450004FFB1CBD1CB501217E2008F06BFD4FF425
:102460008070009001208DF8040000208DF8060097
:1024700003208DF8050001208DF807006946BD484E
:1024800008F0BAFA4FF48071BA4808F031FB4FF403
:10249000E070009001208DF8040000208DF8060007
:1024A00003208DF8050001208DF807006946B24829
:1024B00008F0A2FA4FF4E071AF4808F019FB4FF4AE
:1024C000E060009001208DF8040000208DF80600E7
:1024D00003208DF8050001208DF807006946A74804
:1024E00008F08AFA4FF4E061A44808F001FB4FF4C9
:1024F0000040009001208DF8040000208DF80600B7
:1025000003208DF8050001208DF8070069469C48DE
:1025100008F072FA4FF40041994808F0E9FA4FF4D4
:10252000E040009001208DF8040000208DF80600A6
:1025300003208DF8050001208DF8070069469048BA
:1025400008F05AFA4FF4E0418D4808F0D1FA4FF400
:10255000F840009001208DF8040000208DF806005E
:1025600003208DF8050001208DF807006946854895
:1025700008F042FA4FF4F841824808F0B9FA1CBD5D
:1025800010B50446A07800F0010028B14FF4807126
:10259000784808F0AFFA04E04FF48071754808F00D
:1025A000A7FAA078C0F3400028B14FF480717248B8
:1025B00008F0A0FA04E04FF480716F4808F098FA30
:1025C000A078C0F3800020B180216B4808F092FA17
:1025D00003E08021684808F08BFAA078C0F3C000BF
:1025E00020B14021644808F085FA03E040216248A8
:1025F00008F07EFAA078C0F3001028B14FF4806193
:102600005E4808F077FA04E04FF480615B4808F018
:102610006FFAA078C0F3401028B14FF4007157480A
:1026200008F068FA04E04FF40071544808F060FACA
:10263000A078C0F3801028B14FF480714F4808F0A3
:1026400059FA04E04FF480714C4808F051FAA07830
:10265000C0F3C01028B14FF40041494808F04AFACD
:1026600004E04FF40041464808F042FA94F836007E
:1026700000F0010028B14FF48041414808F03AFAD7
:1026800004E04FF480413E4808F032FA94F83600F6
:10269000C0F3400028B14FF40051394808F02AFA3D
:1026A00004E04FF40051364808F022FA94F836005E
:1026B000C0F3800028B14FF48051314808F01AFA75
:1026C00004E04FF480512E4808F012FA94F83600D6
:1026D000C0F3C00028B14FF400512A4808F00AFAAC
:1026E00004E04FF40051274808F002FA94F836004D
:1026F000C0F3001028B14FF48041224808F0FAF9E5
:1027000004E04FF480411F4808F0F2F994F83600D5
:10271000C0F3401028B14FF480511A4808F0EAF98C
:1027200004E04FF48051174808F0E2F994F83600BD
:10273000C0F3801028B14FF40061124808F0DAF9B4
:1027400004E04FF400610F4808F0D2F994F8360025
:10275000C0F3C01028B14FF480610A4808F0CAF9EC
:1027600004E04FF48061074808F0C2F910BD000092
:10277000001402400008024000180240000C024011
:1027800000040240001002401CB501214C2008F05A
:10279000D1FB4FF4FC40009000208DF80400032092
:1027A0008DF8050001208DF807006946FE4808F005
:1027B00023F9C020009000208DF8040003208DF83C
:1027C000050001208DF807006946F84808F014F963
:1027D0002C20009000208DF8040003208DF80500C7
:1027E00001208DF807006946EF4808F005F94FF41D
:1027F0007840009000208DF8040003208DF805003B
:1028000001208DF807006946E84808F0F5F81CBD7E
:10281000F0B50446059D0020E6B2012E0BD10F88CD
:1028200002F0FF0C674502DBD7B20F800CE00F8887
:102830007F1C0F8008E00F88012F02DC00270F802B
:1028400002E00F887F1E0F800F889F4201DC00206E
:1028500009E00F88A2EB030C1FFA8CFC674501DB33
:10286000012000E028782870F0BD30B5A1B0044602
:10287000032020901F901E901D901C901B901A907A
:10288000199018901790169015901490139012901C
:102890001190002010900F900E900D900C900B90C6
:1028A0000A90099008900790069005900490039074
:1028B000029001904FF40061BB4808F0FFF8054614
:1028C00010A80223062220A900902846FFF7A0FFA7
:1028D000C043618860F3000161804FF48051B248C9
:1028E00008F0ECF805460FA8022306221FA9009065
:1028F0002846FFF78DFFC043618860F34101618086
:102900004FF40051A84808F0D9F805460EA8022354
:1029100006221EA900902846FFF77AFFC04361886F
:1029200060F3820161804FF480419F4808F0C6F84F
:1029300005460DA8022306221DA900902846FFF790
:1029400067FFC043618860F3C30161804FF4806119
:10295000954808F0B3F805460CA8022306221CA9E6
:1029600000902846FFF754FFC043618860F30411CC
:1029700061804FF400718C4808F0A0F805460BA860
:10298000022306221BA900902846FFF741FFC043FF
:10299000618860F3451161808021844808F08EF8D9
:1029A00005460AA8022306221AA900902846FFF726
:1029B0002FFFC043618860F38611618040217B480E
:1029C00008F07CF8054609A80223062219A9009000
:1029D0002846FFF71DFFC043618860F3C71161807F
:1029E0002021714808F06AF8054608A8022306224B
:1029F00018A900902846FFF70BFFC043B4F8461013
:102A000060F30001A4F846100821674808F056F862
:102A1000054607A80223062217A900902846FFF7BB
:102A2000F7FEC043B4F8461060F34101A4F8461025
:102A300004215D4808F042F8054606A80223062254
:102A400016A900902846FFF7E3FEC043B4F84610ED
:102A500060F38201A4F846104FF40041534808F097
:102A60002DF8054605A80223062215A90090284640
:102A7000FFF7CEFEC043B4F8461060F3C301A4F8DC
:102A800046104FF48041494808F018F8054601A85F
:102A90000223062211A900902846FFF7B9FEC04381
:102AA000B4F8461060F3C711A4F846104FF4006163
:102AB0003E4808F003F8054602A80223062212A9A0
:102AC00000902846FFF7A4FEC043B4F8461060F318
:102AD0008611A4F846104FF48051344807F0EEFFF9
:102AE000054603A80223062213A900902846FFF7F3
:102AF0008FFEC14334F8460F61F3451020804FF438
:102B000000512A4807F0DAFF054604A802230622EE
:102B100014A900902846FFF77BFEC043218860F38C
:102B2000041121804FF400611F4807F0C7FF2049BE
:102B300008804FF480511C4807F0C0FF1C494880B2
:102B40004FF40051184807F0B9FF194988804FF435
:102B50008041154807F0B2FF1549C8804FF48061E5
:102B6000114807F0ABFF124908814FF400710E487D
:102B700007F0A4FF0E49488180210C4807F09EFF12
:102B80000B4988814021094807F098FF0849C8810E
:102B90002021054807F092FF0549088208210248D4
:102BA00007F08CFF024905E000180240000C0240CB
:102BB000982D002048820421174807F07FFF17490D
:102BC00088824FF40041164807F078FF1349C88205
:102BD0004FF40051124807F071FF104908834FF479
:102BE00080510F4807F06AFF0C4948834FF4006199
:102BF0000B4807F063FF094988834FF48041084878
:102C000007F05CFF0549C88305F019FAC4F82600EF
:102C1000463C21B030BD000000180240982D002035
:102C2000000C02401CB540F22441B64809F052FBAA
:102C300000284DD0002240F22441B24809F00FFB99
:102C4000B04809F085FAC0B200900021AE4809F002
:102C50002FFFAE49AC4809F0A4FFAB4809F04BFF89
:102C6000C0F12000C0B201909DF80400A84908807E
:102C7000A8480088401CA7490880002405E0A64811
:102C8000005DA6490855601CC4B29DF8040084424A
:102C9000F5DB40F224419B4809F057FB20219A487C
:102CA00009F027FF0121984809F002FF9C4800889D
:102CB00010B901209B490870012240F2244191483B
:102CC00009F0CDFA96480088012801D1964908708C
:102CD0001CBD10B596B004460121480508F02AF93C
:102CE000894809F009FE4FF0006000908548001DFA
:102CF0000190894802900020039020200490002039
:102D000005904FF48060069000200790089009908D
:102D10004FF440300A9000200B9001200C900020CE
:102D20000D900E906946784809F088FE012176489A
:102D300009F0BEFE0021734809F0DBF901210846C5
:102D400008F0F8F80121480408F03DF907220221B3
:102D5000764807F0DCFE07220321744807F0D7FE0F
:102D60000C20149002208DF8540003208DF855009B
:102D700000208DF8560001208DF8570014A96B48EB
:102D800007F03AFE1020149001208DF85400032023
:102D90008DF8550000208DF8560001208DF8570061
:102DA00014A9624807F028FE10940020ADF84400F2
:102DB000ADF84600ADF84800ADF84C000C20ADF879
:102DC0004A0010A94F4809F00CF9012240214D4852
:102DD00009F03CFA01214B4809F08BF940214948A0
:102DE00009F06FFA26208DF83C0003208DF83D0095
:102DF00000208DF83E0001208DF83F000FA807F05D
:102E00000AFD1021494807F075FE49480460012277
:102E100040F224413B4809F022FA16B010BDF8B543
:102E200005460E46002000901021404807F060FE45
:102E3000C8200AF06DFC00240CE0295D314809F03F
:102E400083F900BF80212F4809F02EFA0028F9D01D
:102E5000601CC4B2B442F0DB002036490870C820C0
:102E60000AF056FC1021314807F044FEF8BD10B5B9
:102E7000024600200AE0521C137883EA2023DBB2CA
:102E80002D4C34F8133083EA002398B20B1EA1F1C5
:102E90000101F0D110BD10B5002240F224411948C3
:102EA00009F0DDF925480088202802DD202023498B
:102EB000088023480078C0B9204801782148FFF7EE
:102EC000AEFF21480088214908801C48008820491D
:102ED0000880002404E01B48005D1E490855641C5E
:102EE000164800888442F6DB04E019480178194846
:102EF000FFF795FF012240F22441024809F0AFF9A3
:102F000010BD00000044004088600240400F0020D7
:102F1000680900205E090020782E0020B82D0020CE
:102F2000E40600206C09002080160020000002400A
:102F3000B40600206A0900206E0900206409002000
:102F40005A090020F82D00206009002062090020A5
:102F500066090020382E002092480068704730B57E
:102F600003469049086815E00189994211D1026829
:102F7000416802B1516001B10A60002404604460FC
:102F80000489884D2D682D89AC4201D1854C216082
:102F900030BD40680028E7D100BFF9E730B581486F
:102FA0000468002504E0258964682846FFF7D7FFF8
:102FB000002CF8D100207B49086030BD0146002973
:102FC00040D07848006848B9764801600020754ACA
:102FD00012685060734A1268106070477148006848
:102FE00000890A8990420BDD002008606D48006866
:102FF00048606C48006801606A4801600020ECE7A6
:10300000684802681BE010890B89984201D10120B1
:10301000E3E710890B89984209DD106808604A606F
:10302000106808B11068416011600020D5E7506851
:1030300020B951600A6000204860CEE75268002A3B
:10304000E1D100BF0120C8E770B5054600262C4637
:1030500007E02046FFF7B2FF06460EB1304670BDCE
:10306000283420894FF6FF718842F2D13046F6E7C6
:1030700010B5002400204B4908604B48FFF7E4FFDF
:1030800004460CB1204610BD4848FFF7DDFF04465A
:103090002046F8E710B520204549088000204880E8
:1030A0004860886044F21F0088814248086100201F
:1030B00048618883086281F8400020203E490880EA
:1030C000002048803A4840684860002088603848BE
:1030D00080898881374808610020486188830862B8
:1030E00081F8400035490870FFF7C2FF04460CB173
:1030F000FFF754FF00203249087032490870324906
:103100000880324908703249086032490860324903
:10311000086008200DF014FB3049086010BD38B578
:1031200000242D48006800283BD0264800780090F5
:103130002848036826480268244801782248008805
:10314000254D2D68A8470446FF2C2AD01C4800783E
:10315000012807D0022804D003280AD0042810D15F
:1031600006E000BF00221146204603F083FC08E081
:1031700000BF1848026816480168204603F07AFC30
:1031800000BF00BF00200E4908700F4908800F499A
:1031900008700F4908600F4908600A4908700E4915
:1031A000086038BD7C10002080100020700B0020CB
:1031B000FC2F002020A1070040300020B01200208A
:1031C000D0120020D1120020D4120020D2120020F0
:1031D000D8120020DC120020E0120020E8120020AB
:1031E00010B5FE48FDF7D3F8FD4800884FF6FF7193
:1031F00001EA8002FB480188F848FEF709FB10BD90
:1032000010B5F94800884FF6FF7101EA8002F748CF
:103210000188F748FEF7D7FAF548FDF7C0F810BD6A
:1032200010B5F448406820B9F3480088401CF249C2
:103230000880F248007850B1F148B0F90000002849
:1032400005DDEF480088401E00B2ED49088001F01E
:10325000AAFD10BD30B5EB48007800283FD1EA4800
:10326000007800283BD00021E248808B012800D163
:10327000012181B10020DF4A50609083E34A506011
:103280009083DD4A10800120E14A1070E148006817
:10329000E14A106022E0DE48007801281ED1DD4BB3
:1032A0001A6800BFDC4B1B68D31ADC4C63434FF435
:1032B0007A7493FBF4F4D04B1B8843F609556B43A7
:1032C00004EB8310CB4B5860D04B58600023CA4CA2
:1032D0002380D14C2360CE4C237000BF00BF30BD93
:1032E00010B5FDF765F810BD70B5CD480078401CED
:1032F000CB4908700020CB490880CB490880C148E1
:103300000078002876D0C948007820B1C8480088E5
:10331000401CC7490880C7480088002845DDC648CA
:103320000088C4490988884220DDAF480088002809
:103330000ADDB048008DC1490989884204DCAD48E6
:10334000008DC01CAB490885A548008800280DDD0C
:10335000A548008850B9AD48008DB8490989884210
:1033600004DCAA48008DC01CA84908859E48008836
:10337000B0B99B480088002812DDFEF7F6F9054633
:1033800000BF05F4006028B9AB480088401CAA497A
:10339000088004E00020A84908809C49088504E0D2
:1033A000A5480088401CA4490880FEF7DEF90446C1
:1033B00000BF04F4806078B3A148007828B1914838
:1033C000007810B100209C4908808A48008D0028B0
:1033D00004DD8848008DC01E864908850120994972
:1033E00008708848007830B19748007818B1FFF726
:1033F00007FF11E037E002227C4801889348FEF77E
:10340000E2F97A480088784A12881044801E81B216
:1034100002228E48FEF7D7F9FFF762FF8348007853
:1034200090B18B48008800280EDD894800888049CB
:103430000988884208D1FFF7D3FE85480088012813
:1034400002D100207A4908807848007840B16F485E
:103450004088032804D17E48008808B9FFF7C0FEE1
:1034600000207349088001F08BFE70BD10B500206C
:103470006D4908806D48007840B164484088032851
:1034800004D17348008808B9FFF7AAFE00206849F4
:10349000088010BD38B5002401F0D1FDFFF7FAFD1A
:1034A0000020554908805C4908605949087000901F
:1034B00002224FF4A0616846FEF75DF9BDF80000F6
:1034C0000090BDF8000000F0010000280DDDBDF8FF
:1034D000000020F480700090BDF8000000900222EF
:1034E0004FF4A0616846FEF793F90120594908702E
:1034F000204638BD10B55748007800B910BD424885
:10350000007818B94F48007800283AD13D48007833
:10351000002836D13C480078C8B1FEF720F90446AF
:1035200000BF04F4806040B101204649087046485D
:10353000007858B1FFF764FE08E02B48008828B9EE
:1035400004F4006010B101203E49087000BF07205C
:1035500001218140404A430942F8231000BFFFF790
:10356000BFFE3248007808B1FFF73AFE072001217C
:1035700081404209920002F1E022C2F8001100BF2E
:1035800000BF01F0FDFDFFF7CAFD01F086FC3348E6
:10359000008820B13148008800B231498882314822
:1035A000008820B12F48008800B22D4908822E489B
:1035B000008818B12C480088294948832B48008886
:1035C00018B12A480088264908832948008818B17C
:1035D0002748008822494DE04DE00000662F00207A
:1035E000901200209E120020921200209C120020B7
:1035F000D02E0020FC2F0020541200208B1200201F
:103600006A1200206912002084120020403000203D
:103610005C120020280700205812002040420F00B2
:1036200050120020781200207C1200206612002028
:1036300082120020701200206E120020B4120020AE
:103640006C1200206712002065120020A2120020D8
:10365000801200205D12002080E100E0DA060020E8
:1036600000170020DE060020D0060020CE06002035
:10367000D2060020C883D048008818B1CE48008800
:10368000CE49C884CE48008818B1CD480088CB49BF
:103690000885CC48008818B1CA480088C749888581
:1036A000C9480068C9490860C94800684860C948F5
:1036B0000088C9490880C5480068C8490968884227
:1036C00005D1C2484068C5494968884213D00222E2
:1036D000BE49C3480DF073FBBC480068BF49086091
:1036E000BA4840684860B8480068FFF7F2FAB8483E
:1036F000006803F02BFC40F60F00BA490880BA4975
:103700000968BA4A88180122B9490DF0AAFBB848DD
:10371000008880B24FF6FF7188420CD0B448006830
:103720006FF30F0010F5803F05D0AF480068801C94
:10373000AD49086015E0AE48008880B24FF6FF71D1
:1037400088420BD0AA4800686FF30F0010F5803F45
:1037500004D1A7480088A749088002E00020A549B5
:10376000088000BFCAE62DE9FF4F85B00E4690469F
:103770001F460020049081464FF00A0A02224FF4AF
:10378000A06103A8FDF7F7FF022240F2025102A850
:10379000FDF7F1FFBDF80C0000F0010000287DD01E
:1037A0000125022F07D1BDF8080000F0400008B144
:1037B000042500E002254FF48070039002224FF4AC
:1037C000A06103A8FEF724F800249CE0042240F244
:1037D000045105A8FEF71CF8022F08D1F801029049
:1037E000022240F2025102A8FEF712F80FE008EBA5
:1037F000440002224FF4A161FEF70AF84FF4007072
:103800000290022240F2025102A8FEF701F800BF26
:103810004FF0640B03E0ABF1010000F0FF0BBBF1D4
:10382000000FF8DC022240F2025102A8FDF7A3FFCC
:10383000BDF8080000F400400028E9D1022240F25F
:10384000025102A8FDF797FFBDF8080000F4F04010
:1038500050B1BDF8080000F4005008BBBAF1000FE9
:103860001ED05120049051E0022F19D14FF6FF7065
:1038700000EA4500019009EB0500B04206DDA6EB29
:1038800009004FF6FF7101EA4000019008EB440087
:103890004FF4A161019AFDF76EFF00E038E000BF30
:1038A000BDF8080000F4F04058B905982844059088
:1038B00009EB05001FFA80F94FF00A0A601984B27B
:1038C00021E0AAF1010000F0FF0ABAF1000F17DDB4
:1038D00042F210710020484B1B889AB20DE0464B13
:1038E0001B8898B2824202DA131AC91A04E04FF612
:1038F000FF739B1ACB1A191A02460029EFDC02E06B
:103900005120049002E0B442FFF660AF00BF01E036
:10391000502004900020039002224FF4A06103A8DD
:10392000FDF776FF049809B0BDE8F08FF0B585B0DB
:103930000125FF200090022301AA07210020FFF7A4
:1039400012FF0546002D33D101AF002420E0385D81
:10395000BDF8001048400090002615E0BDF80000BA
:1039600000F0800038B1BDF80000072181EA400076
:1039700080B2009006E0BDF800004FF6FF7101EA4A
:1039800040000090701C86B2082EE7DB601C84B2F9
:103990000E2CDCDBBDF80000C0B2009004236A46A8
:1039A00001210720FFF7DFFE054605B9202500BFEE
:1039B000284605B0F0BD0000D40600200017002006
:1039C000D6060020D8060020B4060020B82E00201D
:1039D000B8060020C006002052120020C42E00208D
:1039E00000000E08C20600204C1200200078FF1FC5
:1039F00048120020C4060020280700200020244987
:103A0000086024490880704770B504460025E088A6
:103A1000000B092817D2DFE800F01610050F11126D
:103A200013140A00204602F012FE05460DE020465F
:103A300003F081F8054608E000BF00BF00BF00BFEB
:103A400000BF042501E0052500BF00BF284670BD6A
:103A500010B504460E48006840B100210C480068CB
:103A6000FDF711F900200A4908600FE04FF40071DA
:103A700020460CF0A9FF0CB9072010BD0E22064904
:103A800020460CF022FF204603F055F80020F4E712
:103A900060120020EC120020E412002038B5044629
:103AA00002224FF401716846FDF765FEBDF8000083
:103AB0002040009002224FF401716846FDF7A8FEF5
:103AC00038BD38B5044602224FF401716846FDF74F
:103AD00052FEBDF800002043009002224FF4017115
:103AE0006846FDF795FE38BD08B50020009002221B
:103AF00040F202516846FDF73EFEBDF8000000901E
:103B0000BDF8000000F40060002805DCBDF80000EE
:103B100000F48050002803DD0020FE49087002E018
:103B20000120FC49087008BD10B504464FF4006040
:103B300000EBC4010822F848FDF71DFEF64810BD51
:103B400038B504464FF480700090E00000F606059A
:103B5000022229466846FDF75BFE00BF0222294685
:103B60006846FDF708FEBDF8000000F480700028EC
:103B7000F4D038BD38B5044600200090E00000F6CF
:103B80000605022229466846FDF742FE00BF0222D2
:103B900029466846FDF7EFFDBDF8000000F480708F
:103BA0000028F4D138BD2DE9F047804600270025D4
:103BB0000026DA48008842F6FF7188420BDBD748BE
:103BC0000088884207DBD5480088884203DBD34859
:103BD0000088884202DA1420BDE8F0870020FFF751
:103BE000A3FF04466588268805F00100002801DD52
:103BF0001720F1E706F00100002801DD1720EBE7B0
:103C0000A07900F0010008B916271FE0207900F024
:103C10000C00042801D0162718E0207900F00200DB
:103C2000022801D0162711E0222D01DA16270DE017
:103C3000B5F5807F01DD162708E0B6F5805F01DA73
:103C4000162703E0B6F5405F00DB16271FBB0120F7
:103C5000FFF76AFF04466588268805F00100002802
:103C600001DD1720B8E706F00100002801DD17206C
:103C7000B2E7A07900F0010008B916271EE020790C
:103C800000F00C0008B1162718E0207900F00200BF
:103C9000022801D0162711E0222D01DA16270DE0A7
:103CA000B5F5807F01DD162708E0B6F5845F01DAFF
:103CB000162703E0B6F5405F00DB1627002F57D12B
:103CC000B8F1030F54DD0120954908700320FFF778
:103CD0002BFF04466588268805F00100002801DDD9
:103CE000172079E706F00100002801DD172073E7AF
:103CF000A07900F0010010B10DB9042736E0A079D9
:103D000000F0010068B387480088854204D18548E7
:103D1000008808B1962D01DD032727E0207900F007
:103D20000C00E0B980480078022805D1B6F5805F24
:103D300002DBB6F5405F07DB7B48007802280CD039
:103D40007A480088864208D1207900F002000228D3
:103D50000CD100207249087008E0022706E0042711
:103D600004E015B96F48008800B1032707B11E278A
:103D7000F7BBB8F1020F61DD0220FFF7D5FE044664
:103D80006588268805F00100002801DD172023E75B
:103D900006F00100002801DD17201DE7A07900F0E2
:103DA000010010B10DB9042746E0A07900F0010030
:103DB000A8B35F480088854237D15D48008878B352
:103DC000962D32DC207900F00C0004282BD15648C7
:103DD0000078022805D1B6F5805F02DBB6F5405FBA
:103DE00009DB5148007802281BD05248008800E0C7
:103DF00024E0864215D1207900F0400018B101205E
:103E00004D49087002E000204B490870207900F00D
:103E10000200022810D10020414908700CE006E0A1
:103E200003E0022708E0042706E0032704E015B9B1
:103E30003F48008800B1032707B11D2787B9C14655
:103E40000AE04846FFF770FE0446E0883B490880D8
:103E500009F1010000F0FF09394800788145F0DBE5
:103E60003846B9E62DE9F04786B00020049003906B
:103E70000290019080464FF0030A4FF0030900249E
:103E800000254FF6FF762F48808906402E4880890E
:103E9000064000202D4908802D4908700220FFF7B8
:103EA00043FE0746388823490880387900F002002D
:103EB00008B14FF001090320FFF736FE07463888A6
:103EC0001A490880387900F0020008B14FF0010A61
:103ED000164800881349098801FB0A001D49098812
:103EE000884208DD1B4800881B49098808440F499F
:103EF000098888423BDC0D4800880A49098801FB93
:103F00000A0016490988884235DD1448008814499A
:103F1000098827E0AE120020A61200209612002089
:103F20008512002090120020981200209E1200207E
:103F3000921200209C12002068120020A41200207F
:103F400094120020FC2F002040300020A0120020FE
:103F5000671200200E070020080700200C07002031
:103F60000A0700200844FE490988884203DD1E2014
:103F700006B0BDE8F087FB480088FB49098801FBD3
:103F80000900FA490988884208DDF8480088F8499C
:103F900009880844F3490988884225DCF1480088EB
:103FA000F149098801FB0900F2490988884208DDC6
:103FB000F0480088F04909880844EA49098888429D
:103FC00012DCE8480088E849098801FB0900E44957
:103FD000098888420ADDE2480088E84909880844DF
:103FE000E0490988884201DD1D20C1E702224FF423
:103FF000186105A8FDF7BFFBBDF814000590042269
:104000004FF41A6102A8FDF7B6FB02980290042251
:1040100040F6A41101A8FDF7AEFB01980190D84825
:104020004488D8484588BDF8140000F41060002882
:104030004BD0BDF8140000F4C06008B9302097E7F9
:10404000BDF8140000F4007030B9BDF8140000F49D
:10405000806008B130208BE78EB106F0040020B9F3
:10406000BDF8140000F4007038B906F0080030B94B
:10407000BDF8140000F4806008B1302078E70298A1
:1040800048B1C1490298884203D3C0490298884286
:1040900001D936206CE7BDF8140000F4007060B15F
:1040A000BDF8140000F4806038B1019828B1DDE952
:1040B0000101884201D34FF00108B8F1000F04D08C
:1040C00006F0100008B9302052E7B148007820B35C
:1040D000BDF8140000F4106048B9022C05D0032C80
:1040E00003D0022D01D0032D50D1302040E7BDF880
:1040F000140000F4806028B9032C01D0032D01D1F5
:10410000302035E7BDF8140000F4007018BB022C15
:1041100001D0022D3AD130202AE7BDF8140000F476
:104120001060C8B990480088002808DD0124934831
:104130000088002801DD22250AE0002508E08F48DC
:104140000088002802DD0024012501E0002400256C
:1041500001208B49888319E083480088002806DD08
:10416000B8F1000F01D0032402E0022400E0002493
:1041700082480088002808DDBDF8140000F4806043
:1041800008B1032502E0022500E00025032C06D13A
:104190007B49029848627B490298486208E0022CF9
:1041A00006D1774902984862029880B27549486200
:1041B0007848007818B904B10DB92920D8E604B9B7
:1041C00015B10120744908707348007880B16648C1
:1041D0000088002804DD4FF480607049088007E003
:1041E00066480088002803DD4FF400606B490880B2
:1041F000022C05D0032C03D0022D01D0032D08D1B1
:104200000120674908705848008810B900206349A8
:1042100008805B4844805B484580002061490880F5
:10422000614908806149088061490880B8F1010F3F
:104230002CD1DDE90101884212D3DDE90101B0FB97
:10424000F1F05A490880DDE90101B0FBF1F201FB10
:10425000120040B955480088401C5449088002E0CB
:10426000012052490880DDE90101B0FBF1F04D4920
:104270000880DDE90101B0FBF1F201FB120078B129
:1042800048480088401C4749088009E0022C02D1B8
:10429000012046490880032D02D0012041490880B1
:1042A00000204449088002224FF4846103A8FDF7EE
:1042B00062FABDF80C0003902B480088002821DD2D
:1042C000BDF80C00F0B10222510204A8FDF753FA28
:1042D000BDF810000490BDF8100070B1BDF81010CA
:1042E000881CBDF80C10484346F2A7110844491C2D
:1042F000B0FBF1F0304A108008E0002003902E4916
:10430000088003E0002004902B4908802A48008898
:1043100010B92A48007828B92748008820B12748D2
:10432000007808B91F2023E61B48007840B10E48EA
:10433000008828B11948008840F480601749088037
:1043400000201F4908801F4908801F4908801F4915
:1043500008801F4908701F4908701F4908803DE008
:104360009E1200209C120020921200200E070020B6
:10437000080700200C0700200A07002090120020E8
:10438000FC2F00204030002020A10700000050C377
:10439000B01200208512002084120020A0120020FC
:1043A000691200208012002082120020701200206A
:1043B0006E120020B21200209A1200206812002013
:1043C0007A120020781200207C1200207E12002039
:1043D0006C1200207212002074120020FC4981F837
:1043E0004000FC4981F840000885BDF8140000F445
:1043F000007030B3029818B90020F749088013E024
:10440000F64A0299B1FBF2F0052803D20121F24AE3
:10441000118008E04FF6FF7101EA40010A2291FB8A
:10442000F2F1ED4A118000BFBDF8140000F4806085
:1044300038B1DDE90101884204D2E7480088E84943
:1044400008801DE0E54A0199B1FBF2F0052803D28E
:104450000121E34A118008E04FF6FF7101EA4001B3
:104460000A2291FBF2F1DE4A1180DB4A118801EB4E
:10447000D172DB4B1B8803EB6202D94B1A8000BF61
:10448000D8480088002802DD0220FFF773FBD648D9
:104490000088002802DD0320FFF76CFBFEF7A0FE7A
:1044A000002065E5FF21D148007810B1D048008890
:1044B0007047D048007828B1C820CF4A108000202B
:1044C000CE4A10800846F3E70020CD490870CD4958
:1044D0000870704710B5C3480088002802DD02202C
:1044E000FFF72EFBC0480088002802DD0320FFF7FD
:1044F00027FB0C2444F4806444F40064E14388B254
:10450000FFF7CCFA0020BE490870BF490870B949CE
:104510000870BE490870BE490870BE490880BE498F
:104520000880AD490880BD490880BD490880AC4974
:104530000880BC490880BC490880A54981F8400032
:10454000AD490880B9490870B9490870B94908707F
:1045500010BD0020B7490870704738B505460C46B5
:104560000094B5480078A84201D0B3480570B3481C
:104570000078A8B1B048007800F0100080B97CB98C
:10458000AD48007800F00F00032809D0FBF72AFFA0
:104590000090A948007840F02000A749087005E085
:1045A000A548007820F02000A34908704FF6FF705E
:1045B000844208D0BDF80000009002224FF49A71A6
:1045C0006846FDF725F99C4800780090BDF800008A
:1045D000009002224FF498716846FDF719F914B162
:1045E00005F0100018B900209549087012E02D2C34
:1045F00003D01A2C01D0322C03D10120904908702D
:1046000008E01B2C03D102208D49087002E00D2028
:104610008B4908708A48007840F01000884908707B
:1046200005F00F0009281AD2DFE800F01905091576
:104630000D19191911000020824908700FE00D2092
:10464000804908700BE001207E49087007E00F20C8
:104650007C49087003E00E207A49087000BF00BF53
:1046600038BD2DE9F04105460F460024A046601EE6
:104670007549088001207549087005F0100040B1A7
:104680004FF001086C48007820F010006A4908706B
:1046900010E06948007800F0100028B105F00F0024
:1046A000012801D0BDE8F0816348007800F00F00D8
:1046B0006149087005F00F055F4806783007060E5F
:1046C0007019C6B2442E24D008DC122E0FD0222E30
:1046D00010D0242E13D0422E22D10AE0482E16D01C
:1046E000822E05D0842E13D0882E19D112E000BF5F
:1046F00000BF00BF0220FFF756FA044610E0394918
:104700003948FBF7CFFD044604B109E000BF00BF04
:1047100000BF00BF4E480078FFF745FA044600BFCF
:1047200000BF002C4AD100204A4908803046342E70
:1047300046D01EDC222844D00EDC142842D006DCF1
:10474000112840D012283FD013283ED12AE0182843
:104750003CD02128F9D14AE1282838D004DC23288C
:104760007CD02428F1D1D2E0312878D03228ECD185
:104770006FE1482874D00CDC422872D004DC382861
:1047800070D04128E1D126E143286CD04428DCD107
:1047900039E18138082818D2DFE800F0F4FDF2F59D
:1047A000171717F001202C4908700220FFF7FBF9BA
:1047B00028B1002028490870152450E150E153E049
:1047C00048E11FE13FE11AE181E046E13CE13CE1E3
:1047D00040300020FC2F00207A120020A08601002B
:1047E0007E120020921200209012002086120020DB
:1047F0008812002069120020741200207612002016
:104800006712002065120020841200206C12002024
:1048100072120020701200206E1200207812002008
:104820007C120020801200208212002068120020DA
:1048300066120020B0120020981200209912002069
:104840008E1200208F1200206A1200208A1200208F
:10485000941200208C12002064120020F6E022E066
:1048600073E0A4E0F7E0F2E00020FFF717F9FCF7AF
:10487000B9F804464CB90020FA490870FBF705FD69
:10488000044614B90120F849087044B1FF2C06D041
:10489000F448007808B9FBF7FAFCFCF7EFF80320BE
:1048A00002F09CFCDBE0F148007868B10020EF49A1
:1048B00008700220FFF777F90020FFF7EFF8FCF708
:1048C000DDF8FBF7E4FC0446FFF743FEC7E0FFF723
:1048D0000BF9E748007800B95124BCB9FCF782F81D
:1048E00004464CB90020DF490870FBF7CEFC0446B3
:1048F00014B90120DC49087044B1FF2C06D0D94816
:10490000007808B9FBF7C3FCFCF7B8F8A7E0FFF79D
:10491000A9FA044674B90020D2490870D548FBF7BB
:10492000B8FC044634B9D3480088FFF7CAF8012020
:10493000D149087044B1FF2C06D0CA48007808B9A4
:10494000FBF7AAFCFFF7C6FD89E0FFF7ABFD0446C5
:104950004CB90020C3490870FBF7A0FC044614B909
:104960000120C649087044B1FF2C06D0BD4800782C
:1049700008B9FBF795FCFFF7A7FD70E044E002E003
:1049800066E008E01BE0FBF78BFCFFF79DFD0020D5
:10499000B449087063E0FBF783FC0446FFF794FD1D
:1049A0000020B049087004B159E0422600BFFBF76F
:1049B00073FCFFF78FFD0020AA4908704FE0FBF75A
:1049C0006FFC0446FFF780FD0020A649087004B183
:1049D00045E0412600BFFBF75FFC0446FFF77AFD88
:1049E0000020A049087004B139E0212600BFFCF77F
:1049F00045F8FBF74CFC0446FFF7ABFD2FE0FFF753
:104A0000A8FD00BF00BF00BFB8F1000F02D03046C4
:104A1000FBF73AFC9A48007898B99A48007800F079
:104A20000C0070B198480088002803DD0220FFF7D1
:104A3000A1F806E095480088002802DD0320FFF772
:104A400099F8FE240BE000BF00BF00BF00BF00BF0D
:104A500000BF00BF00BF112401E0122400BF1EE010
:104A60008848007802280DD0042806D0082816D1DE
:104A7000FBF716FCFFF728FD00BFFBF70DFCFFF767
:104A800029FD00BF162C07D1FBF7F8FFFBF7FFFB52
:104A900001207C49087002E002207A490870FF2C4E
:104AA00026D101207A4908707A48068000881228A9
:104AB00006D0132805D0242808D048280CD106E0B9
:104AC00000BF4FF4FA607449088009E000BF42F269
:104AD00028307149088003E0C8206F49088000BF72
:104AE00000BF6D480088323800B26B49088049E049
:104AF0006448007800F00F00A8423BD004B9DFB151
:104B000060480078284300F00800A8B15B480078AE
:104B100018B1FBF7C5FBFFF7D7FC5B4800880028FE
:104B200003DD0220FFF70CF806E058480088002853
:104B300002DD0320FFF704F86CB152480078082822
:104B400002D104204F4908704E48007840F0100010
:104B50004C49087005E017B13C4645F0100549483E
:104B6000057000204A490870214646480078FFF742
:104B7000F4FC07E000204649087000214148007815
:104B8000FFF7EBFC00BF8DE570B5414800780028C9
:104B900067D00024002500263F480088002855D112
:104BA0003C480088C0F307153A480088122806D010
:104BB000132805D0242812D0482846D11EE000BF73
:104BC0002848007808B9FBF762FBFBF757FF2C4831
:104BD000007810B13148068800E0012635E0214810
:104BE000007808B9FBF758FBFFF774FC24480078FD
:104BF00010B12A48068800E0012626E028480078FF
:104C000078B12848007808B92D2615E026480078A4
:104C100028B91D480088002801DD1B260CE01A2653
:104C20000AE019480088002801DD1B2604E0082559
:104C3000002601201149087036B10A48007808B9E9
:104C4000FBF72EFBFFF740FC00BF9FE011480088F8
:104C500012282BD013282AD0242841D048283ED10E
:104C600055E09FE08A120020060700206412002011
:104C7000AE120020A0120020661200206512002053
:104C8000861200209812002092120020901200201C
:104C90008B1200208C1200206A1200208812002043
:104CA000691200206C1200206712002000BFFE482D
:104CB0000078A0B10020FC490870FBF7E6FA044632
:104CC0003CB90120F9490870F948007800F00F0557
:104CD00005E0FF2C03D0FBF7DAFAFBF7CFFE54E038
:104CE000F148007890B10020EF490870F148FBF7D7
:104CF000D0FA044624B90120EF490870042505E0E4
:104D0000FF2C03D0FBF7C8FAFFF7E4FB3DE0E648D1
:104D1000007818B3E948007808B3E948B0F9000012
:104D2000002831DDE648B0F90000E649B1F900108D
:104D3000884229DC0020E2490880E2490880FBF72C
:104D4000ADFA044624B90120DF49087008251BE0AC
:104D5000FF2C19D0FBF7A4FAFFF7B6FB14E0DB48F1
:104D6000008810B1DA48007870B1FBF797FA044672
:104D700024B90120D4490870082505E0FF2C03D090
:104D8000FBF78EFAFFF7A0FB00BF00BF4DB100207C
:104D9000D04908700EB145F0100531462846FFF79E
:104DA000DCFB00BF70BD072001218140CA4A4309D6
:104DB00042F8231000BFC1480078002862D0C748DD
:104DC0000088002809DDC6480088C449098888424F
:104DD00003DB0020C34908700DE0C1480088BF49CB
:104DE0000988884204DABE480088401CBC49088013
:104DF0000120BC490870BB48007890B1BA480088CF
:104E000000280EDDB9480088B7490988884205DACC
:104E1000B6480088401CB549088002E00020B1492E
:104E20000870B048007838B3B148008DB14909899D
:104E300088420EDA0120B0490870A148B0F900009C
:104E400000281FDD9F480088401C00B29D49088053
:104E500018E0A9480078A8B10020A74908700120EF
:104E6000A34981F840009648B0F90000002809DD08
:104E700000209449088005E09F48007810B1002088
:104E80009D4908700720012181404209920002F1EA
:104E9000E022C2F8001100BF704708B597480088AB
:104EA000F8B10020009002224FF488616846FCF7B8
:104EB00062FCBDF800000090BDF8000000F00100A9
:104EC00070B98248008800280ADD7F48007820B148
:104ED0001B210420FFF7C5FB08BD00207C4908709A
:104EE00000BF7648007890B17748007878B17D4867
:104EF000007820B92C210420FFF7B3FBECE77E48B3
:104F0000007820B91A210420FFF7ABFBE4E700BFCB
:104F1000E2E770B505460C462E466E48007800283C
:104F20005CD06148007850B1002C07D00120744952
:104F30000870744804800020734908807EE02CB318
:104F400001206F4908706F48048059480088122872
:104F500006D0132805D0242808D0482810D10AE00C
:104F600000BFFBF794F9FBF789FD09E0FBF794F923
:104F7000FFF7B0FA04E0FBF793F9FFF7A5FA00BFDB
:104F800000BF4B480088C0F307161CE04848008863
:104F9000122806D0132805D0242807D048280DD180
:104FA00008E000BF01204149087007E001204249A4
:104FB000087003E001204449087000BF00BF3C486E
:104FC000007800F00F060020424908700CB146F04E
:104FD000100621463046FFF7C0FA2FE08CB10120C1
:104FE000474908704748048005F00F004749097891
:104FF00001F00F01884221DA21462846FFF731FBF4
:105000001CE03F480078C8B14048007800F00F002D
:105010000C280ED12D480088002803DD0220FEF761
:10502000A9FD06E03A480088002802DD0320FEF7CB
:10503000A1FD0020324908703249088070BD38B5A2
:1050400000200090022204216846FCF794FBBDF882
:1050500000000090BDF80000000A2E4908700222EE
:1050600006216846FCF787FBBDF800000090BDF8FC
:10507000000040F6FF7101EB802027490880FEF711
:1050800033FD002404E02046FEF75AFD601CC4B244
:10509000204800788442F6DBFBF75CFC00200249E4
:1050A00008700C49087039E08A12002006070020B9
:1050B0008C120020A012002066120020691200202D
:1050C0007412002076120020651200209212002037
:1050D000671200208B12002080E100E07A1200208D
:1050E000781200206C1200207E1200207C1200201A
:1050F000FC2F0020B4120020721200209A1200200F
:1051000086120020881200206A12002098120020C7
:105110009012002094120020961200206C49087012
:105120006C4908706C4908706C4908706C490870CB
:105130006C4908806C4908806C4908806C4908807B
:105140006C4908806C4908706C4908706C4908808B
:105150006C4908806C4908806C49088001206C49C2
:10516000087000216A480078FFF7F7F900206949C4
:1051700008806949087069490870FEF73FFC38BD2E
:105180001CB50020019001200090FBF734FF64481B
:10519000007840B1022240F60E016846FCF7EBFAB7
:1051A000BDF800000090FCF7DAFA044600BF04F0F6
:1051B0000100C8B15B480078B0B902224FF4907189
:1051C00001A8FCF7D8FABDF804000190BDF804006E
:1051D000C0F340104149087024F01104BDF80410D8
:1051E000C8B20021FFF73DFA04F01000B0B14D48FD
:1051F000007898B94648007800F0100070B944482B
:10520000007820F01000012808D024F01004404954
:10521000097801F00F000021FFF723FA41480078D8
:1052200008B1FFF7B1FC3E48007800284FD0BDF828
:10523000000000F0010030B93549097801F00F0095
:105240000021FFF70EFA04F4007060B10020364927
:1052500008800222354801883348FCF7D9FA24F443
:105260000074FBF7BAFDBDF8000000F0020010B1B9
:105270002F48007838B1BDF8000000F00200D8B91E
:105280002B480078C0B1FBF710FE2948007828B100
:10529000BDF8000040F40070009004E0BDF800008C
:1052A00020F400700090BDF800000090022240F64B
:1052B0000E016846FCF7ACFAFCF751FA044600BF51
:1052C00004F4807018B124F48074FBF717FE1CBD41
:1052D000671200206512002066120020991200203B
:1052E000681200209A120020781200207A12002002
:1052F0007C1200207E1200206912002086120020FD
:1053000088120020A012002092120020901200208B
:10531000981200208C1200208E120020841200208F
:10532000060700208B120020A21200200E0700208A
:105330000707002070B50546FDF70EFE044605E0A0
:105340002089A84201D1204670BD6468002CF7D1A5
:105350000020F9E72DE9F04184460C461E4690896D
:10536000C0F30323177B00212EB3072B02D10020AB
:10537000BDE8F081082B0BD190690778106900898E
:1053800000FB07F1C81DC10804B9891C0846EFE7F6
:10539000012508E005EB4508106900EB480040884E
:1053A0000144681CC5B2BD42F4DDC81DC10804B982
:1053B000891C0846DCE7072B04D110694088C01D12
:1053C000C010D5E70CB90120D2E7082B04D1106931
:1053D0000089C01DC010CBE704EB4405106900EB49
:1053E00045004088C01DC010C2E710B5302383704F
:1053F000642391FBF3F3047823440370642391FB4B
:10540000F3F403FB1413DAB20A2392FBF3F34478A8
:10541000234443700A2392FBF3F403FB14238478A0
:105420002344837010BD30B502469489C4F303232E
:10543000082B05D109B9106907E01469A01D04E023
:1054400001EB4105146904EB450030BD2DE9F0473F
:1054500005462020A8401FFA80F9FDF77DFD04468F
:105460004FF000081FE02089B0F5805F1ADB2E4660
:1054700096B194F80CA000270AE0F9B22046FFF795
:10548000D2FF808800EA090000B10026781C87B2AC
:105490000EB15745F1DD00BF1EB908F101001FFA3A
:1054A00080F800BF6468002CDDD14046BDE8F0877D
:1054B0002DE9FC5F05460E4617469846DDF830B0EC
:1054C0002020A84080B201903088B0F5805F0AD1DA
:1054D000FDF742FD044644B9BBF1000F05D01B2087
:1054E0008BF8000001E0FB4804688CB32DE02089B4
:1054F000B0F5805F28DBA946B9F1000F19D0207BF9
:1055000000904FF0000A0DE051462046FFF78BFF58
:1055100080880199084008B14FF000090AF10100A4
:1055200000F0FF0AB9F1000F02D000988245EBDDD0
:1055300000BFB9F1000F06D12089A8F8000008F1DA
:105540000208B81E87B200BF64680CB1012FCEDC20
:1055500014B12089308002E04FF6FF703080DD48C2
:1055600004603846BDE8FC9F2DE9FF5F0F4690467A
:105570001C460026D8F81490B8F80C00C0F3032B92
:1055800017B1BBF1070F0BD148460BF07FF986B27C
:10559000002C49D03246494620460BF096F943E0AC
:1055A000BBF1090F2ED14FF0010A039748460BF0CB
:1055B0006DF9401C00EB090519E0039882450DD1F7
:1055C00028460BF063F986B234B12EB13246294633
:1055D00020460BF07AF900E0002611E00AF1010004
:1055E0001FFA80FA28460BF051F9401C0544039835
:1055F000824505DC2878FF2802D02878FE28DCD1F7
:1056000000BF00BF86B90C2674B1B34B0FCB8DE839
:105610000F0039460DF10900FFF7E7FE0D2269463C
:1056200020460BF052F900BF304604B0BDE8F09FB1
:10563000014601F10A007047F0B504460D4600210D
:10564000A889C0F30326002C02DD01F1100081B20D
:10565000072E01D10020F0BD01236CE0082E02D1FD
:105660002869821D04E003EB4307286900EB470229
:1056700010881F281FD00ADCA0F10300092851D28E
:10568000DFE800F016325017313350501A00B0F5F1
:10569000187F12D006DC202829D02E280AD02F28E7
:1056A00040D123E0A0F2622010B301283AD120E0DB
:1056B00000BF00BF00BF00BF00BF01F10F004FF6E9
:1056C000F07700EA0701A3420CDA10880B2803D018
:1056D0001088B0F5187F02D15088084481B201F1DA
:1056E000100081B224E000BF00BF00BF00BF00BFB8
:1056F00000BF01F11F004FF6E07700EA0701A34267
:105700000FDA108840F26227B84203D010887F1C5D
:10571000B84203D15088084481B202E001F1200070
:1057200081B205E0A34202DA5088084481B200BF8A
:1057300000BF581C83B2A34290DD08468BE70246A7
:10574000022940D003DC39B101296ED106E00329DA
:1057500052D0222969D125E00020704741F632401D
:1057600082420BD15D480088002807DD5C48007B41
:1057700000F00200002801DD0020EEE741F6334092
:1057800082420ED15748007B00F00200002808DD5D
:105790005248008828B954480088002801DD0020BC
:1057A000DBE742E041F6334082420BD14D48007BBB
:1057B00000F00200002805DD48480088002801DDCF
:1057C0000020CAE731E041F63240824207D1444826
:1057D000007B00F00400002801DD0020BDE741F659
:1057E0003340824207D13F48007B00F0040000288C
:1057F00001DD0020B1E718E041F63240824207D1D6
:105800003748007B00F00800002801DD0020A4E7F5
:1058100041F63340824207D13248007B00F0080055
:10582000002801DD002098E700BF00BF122094E7A8
:105830002DE9FF4F87B0824689461F46149CC84613
:10584000B889C0F303200690387B0590CDF81090FE
:105850000698072805D0BAF5805F02DBB8690078A2
:105860000590159860B10698072802D0BAF5805FB8
:1058700003DA05200BB0BDE8F08F059804901EE018
:105880000598814501DD1120F4E708F0FF01384655
:10589000FFF7C9FD0546A88888B11448007800F0D4
:1058A0000F00297901F00701B0EB410F07DD2879DE
:1058B00000F0070008B90620DCE71A20DAE7F869EB
:1058C000B0B1159800902346FE6949465046099AA2
:1058D000B047CFE7F0120020C01200209212002043
:1058E000FC2F002040300020901200209812002051
:1058F000BAF5805F4CDAB9F1000F49D0BE6949466C
:105900003846FFF790FD05466888C01D4FEAE00B5A
:105910000396A9F10100039E56F82060307800F04C
:10592000010040B30020318821F0010600BF0BE0E8
:105930003188090A21802188B27841EA0221218038
:10594000A41CB61C411C88B20BEBDB72B0EB620FDF
:10595000EEDB59460BEBD1725210ABEB4202012A3F
:1059600008D1218801F47F4121802188328841EAD1
:10597000122121800BE03088208070886080241DF7
:10598000361DABF10402314620460AF09EFF91E13C
:10599000002003900290C84683E1D7F818B0002693
:1059A000B8F1000F08D0BAF5805F05DB08F0FF0002
:1059B0003946FFF741FE064630110BEB400B08F06D
:1059C000FF013846FFF72FFD0546FE48007800F03E
:1059D0000F00297901F00701B0EB410F7DDCC845CC
:1059E00004D01598002879D0C84577DBB8F1000FAE
:1059F00006D10698072803D005982080A41C22E130
:105A0000288800902888B0F5E06F12DB68880828A5
:105A100004DC68882F3080B200900AE06888102883
:105A200002D10620009004E06888202801D10720D8
:105A3000009000981F287CD012DC7BD2DFE800F0B9
:105A40003A525C8E9D5D8F9C9EE3C4C5FDFDFDFDBD
:105A5000FDAFFDFDFDB0FDFDFDFDFDB1FDFD5E00F9
:105A6000342844D012DC30283DD008DC202873D004
:105A70002D2840D02E2873D02F285BD17FE03128ED
:105A800032D0322831D03328F7D12FE0B0F5187F4B
:105A900071D006DC35282BD036282AD03728ECD117
:105AA00028E0A0F2612000286FD001286ED00228E3
:105AB000E3D18EE0159890B1A87800F00F0000288F
:105AC00005DDA878304400F00F0000B9A41CA878C8
:105AD000C0F3031004EB400403E0B5E0DDE0182060
