:020000040800F2
:100000006804002029020008350500082D050008B5
:10001000310500081503000835080008000000003D
:10002000000000000000000000000000B106000811
:1000300019030008000000004D050008C90700086A
:10004000430200084302000843020008430200087C
:10005000430200084302000843020008430200086C
:10006000430200084302000843020008430200085C
:10007000430200084302000843020008430200084C
:10008000430200084302000843020008430200083C
:10009000430200084302000843020008430200082C
:1000A000430200084302000843020008430200081C
:1000B000430200084302000843020008430200080C
:1000C00043020008430200084302000843020008FC
:1000D00043020008430200084302000843020008EC
:1000E00043020008430200084302000843020008DC
:1000F00043020008430200084302000843020008CC
:1001000043020008430200084302000843020008BB
:1001100043020008430200084302000843020008AB
:10012000430200084302000843020008430200089B
:10013000430200084302000843020008430200088B
:10014000430200084302000843020008430200087B
:10015000430200084302000843020008430200086B
:10016000430200084302000843020008430200085B
:10017000430200084302000843020008430200084B
:10018000430200084302000800F002F800F03CF8C7
:100190000AA090E8000C82448344AAF10107DA45E2
:1001A00001D100F031F8AFF2090EBAE80F0013F0F8
:1001B000010F18BFFB1A43F0010318472C0700007A
:1001C0004C070000103A24BF78C878C1FAD852070B
:1001D00024BF30C830C144BF04680C6070470000C1
:1001E0000023002400250026103A28BF78C1FBD840
:1001F000520728BF30C148BF0B6070471FB500F0E1
:100200006DFB1FBD10B510BD00F02FF81146FFF7B4
:10021000F5FF00F02FFB00F04DF803B4FFF7F2FFFD
:1002200003BC00F055F80000094880470948004722
:10023000FEE7FEE7FEE7FEE7FEE7FEE7FEE7FEE796
:10024000FEE7FEE704480549034A054B70470000F6
:10025000CD0700088901000868000020680400201C
:1002600068000020704770477047754600F02CF812
:10027000AE4605006946534620F00700854618B093
:1002800020B5FFF7DFFFBDE820404FF000064FF03C
:1002900000074FF000084FF0000B21F00701AC46BB
:1002A000ACE8C009ACE8C009ACE8C009ACE8C009DA
:1002B0008D46704710B50446AFF300802046BDE878
:1002C0001040FFF7AABF000000487047040000205C
:1002D00001491820ABBEFEE72600020070472DE959
:1002E000F04105460C461646B5F1006F02D94FF0B5
:1002F000006001E04FF000500746A5EB07084146BB
:10030000384600F019F900BF84F3088800BFB047F1
:10031000BDE8F08100BFFEE77047000030B107493B
:10032000096841F48061054A116005E003490968E4
:1003300021F48061014A116070470000003C0240D6
:1003400070B504460A460026092502B909E0012ACB
:1003500001D1160205E0022A01D1160201E04FF494
:10036000407600F09FF80546092D28D11548006811
:1003700020F4407013490860084600683043086064
:100380000846006820F0F80008600846006844F05D
:10039000020108430B4908600846006840F48030B9
:1003A000086000F07FF805460648006820F002006B
:1003B000044908600846006820F0F80008602846F4
:1003C00070BD0000103C024009201349096801F487
:1003D0008031B1F5803F01D101201CE00E49096850
:1003E00001F0100109B1062015E00B49096801F47C
:1003F000807109B102200EE00749096801F0EF01A0
:1004000009B1072007E00449096801F0020109B1B8
:10041000082000E0092070470C3C024003480068B7
:1004200040F000400149086070470000103C024065
:1004300030B502460C46092500F034F80546092D72
:1004400019D10E48006820F440700C490860084635
:10045000006840F4007008600846006840F0010041
:100460000860146000F01EF805460448006820F09B
:10047000010002490860284630BD0000103C0240DF
:100480000548006800F0004028B1044802490C39D2
:100490000860034808607047103C0240230167452C
:1004A000AB89EFCD08B509200090FFF78DFF0090D4
:1004B00002E0FFF789FF00909DF800000128F8D0C6
:1004C0009DF8000008BD2DE9FF4106460F46904605
:1004D00000200090019002900390002400254546E2
:1004E00020E0042D11D330190422694600F080F871
:1004F00038190422694600F08FF80020009001901E
:100500000290039010342D1F0CE0042D0AD23019F4
:100510002A46694600F06CF838192A46694600F008
:100520007BF80025002DDCD1BDE8FF8100BFFEE790
:1005300000BFFEE770470000024A0A400243024B38
:100540001A60704780FFFF1F08ED00E07047000051
:1005500001461C48814201D2002070471A4881425E
:1005600001D20820F9E71948814201D21020F4E7AE
:100570001748814201D21820EFE71648814201D284
:100580002020EAE71448814201D22820E5E71348F9
:10059000814201D23020E0E71148814201D2382067
:1005A000DBE71048814201D24020D6E70E48814265
:1005B00001D24820D1E70D48814201D25020CCE73A
:1005C0005820CAE7004000080080000800C000086A
:1005D00000000108000002080000040800000608EE
:1005E0000000080800000A0800000C0800000E08BF
:1005F00030B503460C461546002206E0184600F0CA
:1006000007F844F822001B1D521CAA42F6D330BD45
:1006100001460868704700002DE9F04704460E4681
:1006200017464FF009080025A946B4F1006F02D320
:1006300004F0030008B1BDE8F087FFF721FF0020B8
:10064000FFF76CFE254604EB87091848854215D252
:1006500011E02846FFF7DCFF401C58B12846FFF7A1
:1006600077FF82460221FFF76BFE8046B8F1090F43
:1006700001D002E02D1D4D45EBD300BFB8F1090FAD
:100680000CD108E020463168FFF7D2FE092800D0DF
:1006900003E0241D361D4C45F4D300BF0120FFF7B5
:1006A0003DFEFFF7BBFE00BFC5E700000000FF1FD7
:1006B000704700000CB5002001900090344800689D
:1006C00040F480303249086000BF3148006800F4CF
:1006D000003000900198401C0190009818B90198D2
:1006E000B0F5A04FF1D12A48006800F4003010B1F5
:1006F0000120009001E0002000900098012846D1E0
:1007000023484030006840F0805021494031086063
:100710002048006840F440401E4908601C480830EA
:1007200000681B49083108600846006840F4004032
:1007300008600846006840F4A05008601648091F89
:100740000860081F006840F08070091F086000BF43
:100750000F48006800F000700028F9D040F20570E2
:100760000E4908600A480830006820F00300084974
:10077000083108600846006840F00200086000BFC9
:1007800003480830006800F00C000828F8D10CBDC0
:10079000003802400070004008544007003C02400E
:1007A000042808D14FF0E021096941F004014FF01D
:1007B000E022116107E04FF0E021096921F0040116
:1007C0004FF0E022116170477047000010B51548E6
:1007D000006840F47000134908601348006840F056
:1007E00001001149086000200F49083108600E48D7
:1007F00000680E4908400C4908600D48091D086052
:10080000081F006820F48020091F086000200649A6
:100810000C310860FFF74EFF4FF00060014980394E
:10082000086010BD88ED00E000380240FFFFF6FED2
:100830001030002400BFFEE710B504466FF004003E
:10084000FFF7AEFFE11704EB5171C1F3C701074A8F
:1008500011701046007800EB4001C1EBC0104FF65C
:10086000FF7101EAC0000249088010BD00000020AD
:100870000200002086B0002004900590A820FFF719
:10088000DBFF022204A91248FFF7B2FE0498B0F180
:10089000A03F0FD1059868B1059882080D490E4810
:1008A000FFF711FE002004900590022204A90848D9
:1008B000FFF7B2FE022269460648FFF799FE009C48
:1008C000019D2A4621460348FFF709FD00BFFEE7C8
:1008D0000010070800000108000004084FF04070F5
:1008E000E1EE100A7047000008090008000000202F
:1008F00004000000C40100080C09000804000020E6
:0C09000064040000E0010008000000009A
:040000050800018965
:00000001FF
